:020000040800F2
:20000000102B00203D020008710A0008690A00086D0A0008250500082D1500080000000045
:20002000000000000000000000000000D51300082905000800000000890A0008C114000822
:20004000570200085702000857020008570200085702000857020008570200085702000898
:20006000570200085702000857020008570200085702000857020008570200085702000878
:200080005702000857020008570200080000000000000000000000000000000057020008DC
:2000A000570200085702000857020008570200085702000857020008570200085702000838
:2000C000570200085702000857020008570200085702000857020008570200080000000079
:2000E00057020008570200085702000800000000000000000000000000000000570200087C
:200100000000000057020008570200085702000800000000000000000000000000000000BC
:200120005702000857020008570200085702000857020008000000000000000000000000DA
:200140000000000000000000000000005702000857020008570200085702000857020008BA
:200160005702000857020008000000000000000000000000000000000000000000000000BD
:20018000000000005702000800000000000000005702000800F002F800F040F80AA090E869
:2001A000000C82448344AAF10107DA4501D100F035F8AFF2090EBAE80F0013F0010F18BFA2
:2001C000FB1A43F001031847EC3A00000C3B0000103A24BF78C878C1FAD8520724BF30C85B
:2001E00030C144BF04680C60704700000023002400250026103A28BF78C1FBD8520728BF6D
:2002000030C148BF0B6070471FB503F0F9FA9DE8030000F0A9F81FBD10B510BD00F000F99A
:200220001146FFF7F1FF02F098FE00F01EF903B4FFF7F2FF03BC00F04FF900000948804745
:2002400009480047FEE7FEE7FEE7FEE7FEE7FEE7FEE7FEE7FEE7FEE704480549054A064BDA
:2002600070470000C51400089501000810070020102B0020102700201027002070B5064697
:2002800000F056F8056806F10B0020F00704B4429CBF002070BD2B466A68BAB11068A042F0
:2002A00010D304F1080188423CBF5068586007D35168101941601168091B016058601460A1
:2002C000101D70BD13465268002AE7D12146284600F036F80028DED170BD70B50446051F45
:2002E00000F026F80068002C14BF446870BD002C18BFAC423CBF20466468F8D301680A183C
:20030000AA4218BF456003D12A6805461144016028684119A1421CBF6C6070BD61686960DB
:2003200021680844286070BD704770477047000000487047B8060020704770477047704755
:2003400038B504460A4600206946AFF30080002808BF38BD02460099204600F03FF80120B2
:2003600038BD012000F054B8F8B5AFF30080054600200C46102000BF0646A819A0420DD91B
:20038000324669460020AFF30080070008BF00F03FF80098A04218BF0546C419FFF7C8FFC9
:2003A00005600746F01D20F007004619284600F00AF8B44208BFF8BDA21B31463868BDE8BD
:2003C000F84000F00BB800210160C0E9011070471020704700487047B00600200346406892
:2003E0008C46002818BF88423CBF03464068F8D318681844884207D00CF1030020F0070017
:20040000001D411A521A0146081D0A60FFF765BF10B500F039F8BDE8104000F02FB870479F
:200420007546FFF7D7FFAE4605006946534620F00700854618B020B5FFF70EFFBDE820406D
:200440004FF000064FF000074FF000084FF0000B21F00701AC46ACE8C009ACE8C009ACE827
:20046000C009ACE8C0098D46704710B50446AFF300802046BDE81040FFF7D9BE002801D0BA
:2004800000F02AB87047000010B5012805D0002103A000F027F8012010BD09A1F8E70000C6
:2004A00053494752544D454D3A204F7574206F662068656170206D656D6F727900000000D6
:2004C0003A2048656170206D656D6F727920636F727275707465640001491820ABBEFEE7C3
:2004E0002600020070B505460C460A2000E06D1C00F011F835B128780028F8D102E0641CAD
:2005000000F009F814B120780028F8D1BDE870400A20AFF3008008B569468DF800000320E7
:20052000ABBE08BD00BFFEE77047000001490860704700000C3C024030B10749096841F468
:200540008061054A116005E00349096821F48061014A116070470000003C024070B5044602
:200560000A460026092502B909E0012A01D1160205E0022A01D1160201E04FF4407600F059
:200580009FF80546092D28D11548006820F4407013490860084600683043086008460068B6
:2005A00020F0F80008600846006844F0020108430B4908600846006840F48030086000F0E5
:2005C0007FF805460648006820F00200044908600846006820F0F8000860284670BD00001B
:2005E000103C024009201349096801F48031B1F5803F01D101201CE00E49096801F01001B3
:2006000009B1062015E00B49096801F4807109B102200EE00749096801F0E00109B107201C
:2006200007E00449096801F0020109B1082000E0092070470C3C02400348006840F00040D2
:200640000149086070470000103C024030B502460C46092500F034F80546092D19D10E4819
:20066000006820F440700C4908600846006840F4007008600846006840F00100086014600C
:2006800000F01EF805460448006820F0010002490860284630BD0000103C024005480068F3
:2006A00000F0004028B1044802490C390860034808607047103C024023016745AB89EFCD35
:2006C00008B509200090FFF78DFF009002E0FFF789FF00909DF800000128F8D09DF8000087
:2006E00008BD000010B504464148844208D10121084600F0CBF90021012000F0C7F976E092
:200700003C48844208D10121022000F0BFF90021022000F0BBF96AE03748844208D1012159
:20072000042000F0B3F90021042000F0AFF95EE03248844208D10121082000F0A7F90021CA
:20074000082000F0A3F952E02D48844208D10121102000F09BF90021102000F097F946E0D2
:200760002848844208D10121202000F08FF90021202000F08BF93AE02348844208D1012175
:20078000402000F083F90021402000F07FF92EE01E48844208D10121802000F077F900214E
:2007A000802000F073F922E01948844208D10121801500F06BF90021A01500F067F916E014
:2007C0001448844208D10121401500F05FF90021601500F05BF90AE00F48844207D1012184
:2007E000001500F053F90021201500F04FF910BD000002400004024000080240000C02402D
:20080000001002400014024000180240001C0240002002400024024000280240F0B50A4651
:2008200000210023002400BF3DE0012505FA01F3156805EA03049C4234D105684F00032620
:20084000BE40B543056015794E00B5400668354305601579012D02D01579022D16D1856802
:200860004F000326BE40B543856055794E00B540866835438560456801268E40B54345608A
:20088000456896798E40B6B235434560C5684F000326BE40B543C560D5794E00B540C668CA
:2008A0003543C560491C1029BFD3F0BDF0B504460B46200AE1B24E4D2D680126864035432C
:2008C0004B4E35604B4D55F820502D684F000326BE40B543474E56F82060356003F003059F
:2008E0004E00B540434E56F8206036683543414E56F8206035603F4D55F82050ED684F0061
:200900000326BE40B5433B4E56F82060F560394D55F82050ED684F00C3F34116BE403543A2
:20092000344E56F82060F56003F00305012D03D003F00305022D2FD12E4D55F820506D68DF
:2009400001268E40B5432B4E56F820607560294D55F820506D68C3F380068E403543254E91
:2009600056F820607560234D55F82050AD684F000326BE40B5431F4E56F82060B5601D4D6A
:2009800055F82050AD684F00C3F3C106BE403543184E56F82060B56003F00305022D25D1DA
:2009A000144D55F820502035CE1055F826504E07F70E0F26BE40B5430E4E56F8206020361E
:2009C000CF1046F827500B4D55F820502035CE1055F826504E07F60E02FA06F63543054E5C
:2009E00056F820602036CF1046F82750F0BD0000303802400C380008F0B5002300244D075C
:200A0000ED0E02FA05F3CE1000F1200555F826504E07F70E0F26BE40B543CF1000F12006B5
:200A200046F82750CE1000F1200555F8265045EA0304CE1000F1200545F82640F0BD0000D0
:200A400030B5020AC3B231B101249C40054D55F822502C8305E001249C40024D55F8225099
:200A60006C8330BD0C38000800BFFEE700BFFEE77047000002490143024A1160704700004C
:200A80000000FA050CED00E07047000029B1064A12680243044B1A6004E0034A12688243A5
:200AA000014B1A60704700001038024029B1064A12680243044B1A6004E0034A126882430D
:200AC000014B1A60704700002038024029B1064A12680243044B1A6004E0034A12688243DD
:200AE000014B1A60704700004438024029B1064A12680243044B1A6004E0034A1268824399
:200B0000014B1A60704700002438024010B50824012000F045F902E0FF2000F055F9201EFD
:200B2000A4F10101CCB2F7D110BD10B5002218210420FFF7BBFE002000F042FA10BD70B5DA
:200B400005464FF6FF7401E0601E84B2FF2000F03BF9A84201D0002CF6D10CB9FF2070BDFB
:200B60000020FCE7F8B500F022F900F0B2F9002504E0FF2000F028F9681C85B20A2DF8DB21
:200B8000142600BF95220021084600F032F90446012C04D0301EA6F101018EB2F2D10020C6
:200BA00053490870012C75D192E087224FF4D571082000F01EF9012847D1002506E0FF2070
:200BC00000F002F90DF80500681C85B2042DF6DB9DF8020001287BD19DF80300AA2877D1A5
:200BE0004FF6FE7600BF01220021372000F001F901229107292000F0FCF8044624B1301EA3
:200C0000A6F101018EB2EED1002E61D0012200213A2000F0EEF800285AD1002506E0FF20EC
:200C200000F0D2F80DF80500681C85B2042DF6DB9DF8000000F0400018B106202C49087092
:200C400002E004202A49087043E001220021372000F0CFF801220021292000F0CAF80446A5
:200C6000012C18DC0220224908704FF6FE7600BF01220021372000F0BCF80122002129200A
:200C800000F0B7F80446C4B1301EA6F101018EB2EED112E01EE00120154908704FF6FE7670
:200CA00000BF01220021104600F0A3F8044624B1301EA6F101018EB2F3D12EB101225102F1
:200CC000102000F096F810B100200949087000E06BE700BFFFF71AFF00F0F5F8044800781A
:200CE00008B10020F8BD0CB12046FBE7AA20F9E70C0000202DE9F04106460F4615461948E7
:200D00000078062800D07F02012D0CD101223946112000F06EF80446FCB96902304600F0D8
:200D200023F8044619E001223946122000F061F8044600BF4FF40071304600F015F80446BE
:200D400006F50076681EC0B2051E01D0002CF1D0012200210C2000F04CF8FFF7D7FE204674
:200D6000BDE8F0810C00002070B504460D46FE20FFF7E5FE08B1012070BD04E0FF2000F07E
:200D800023F82070641C281EA5F101018DB2F5D1FF2000F019F8FF2000F016F80020EBE716
:200DA00010B5044621460420FFF74AFE10BD10B5002219210420FFF779FD002000F0F6F8DF
:200DC0000120FFF7EDFF10BD10B504462146002000F038FAC0B210BD10B50020FFF7E0FF92
:200DE00000F07DF808B9002010BDFFF78FFE0120FAE72DE9F04105460C4617464FF00008D3
:200E0000FFF784FEFFF7E8FF10B1FF20BDE8F08100F065F808B1FF20F8E745F04000FFF718
:200E2000D3FF200EFFF7D0FFC4F30740FFF7CCFFC4F30720FFF7C8FFE0B2FFF7C5FF3846C9
:200E4000FFF7C2FF0C2D02D1FF20FFF7BDFF4FF01F0800BFFF20FFF7B7FF064606F080004C
:200E600030B1B8F10000A8F1010101F0FF08F1D13046CBE770B506460D4600F030F808B1D6
:200E8000012070BD2846FFF79FFFFD2D19D0002404E0305DFFF798FF601C84B2B4F5007FF3
:200EA000F7DBFF20FFF790FFFF20FFF78DFFFF20FFF78AFF044604F01F00052801D0022000
:200EC000DFE70020DDE710B50021084600F062F910BD10B50721002000F05CF910BD10B538
:200EE000002406E0FF20FFF76FFFFF2801D1002010BD2046641C4FF6FF718842F2D3012034
:200F0000F6E700002DE9F04106460F46154620480078062800D07F02012D0CD101223946A5
:200F20001820FFF766FF04466CBBFE213046FFF7A1FF044627E016480078012809D0012236
:200F400000213720FFF755FF012229461720FFF750FF012239461920FFF74BFF044694B90F
:200F600000BFFC213046FFF785FF044606F50076681EC0B2051E01D0002CF2D0FD210020D2
:200F8000FFF778FF0446FFF7C1FD2046BDE8F0810C00002021B1028842F04002028004E008
:200FA00002884FF6BF731A400280704710B50446204600F017F80721204600F0EBF810BDFB
:200FC00010B50446054951F82400FFF78BFB044951F8240000F05AF810BD000000000020E2
:200FE000303800081CB504461E4951F824000121FFF76CFD1C4830F814001C4931F81410BF
:2010000008431B4931F814100843009002208DF8040000208DF8060003208DF805000120D5
:201020008DF8070069461348FFF7F8FB124B1A5D124B195D124B53F82400FFF7DDFC0E4B96
:201040001A5D104B195D0E4B53F82400FFF7D4FC094B1A5D0C4B195D094B53F82400FFF769
:20106000CBFC1CBD3C380008483800084E3800085438000800000240633800085A3800082B
:20108000000000205D3800086038000810B504462448844208D101218014FFF727FD0021E8
:2010A000A014FFF723FD3CE01F48844208D101210014FFF7FBFC00212014FFF7F7FC30E0D3
:2010C0001A48844208D10121C013FFF7EFFC0021E013FFF7EBFC24E01548844208D1012126
:2010E0004014FFF703FD00216014FFF7FFFC18E01048844209D101210805FFF7F7FC0021F7
:201100004FF48010FFF7F2FC0BE00B48844208D101214805FFF7EAFC00214FF40010FFF786
:20112000E5FC10BD0030014000380040003C00400034014000500140005401400246002099
:2011400013890B400BB1012000E0002070470146888970478181704710B50022028802F4E5
:2011600041520B884C8823438C882343CC8823430C8923434C8923438C892343CC8923436F
:201180001A430280838B4FF2FF74234083830B8A038210BD70B586B005460E46082E15D247
:2011A000DFE806F012100E0C0A08060438240FE030240DE028240BE0202409E0182407E007
:2011C000102405E0082403E0002401E0382400BF00BF45B901210803FFF788FC00214FF4FF
:2011E0008050FFF783FC0020ADF804004FF48270ADF806000020ADF808000220ADF80A0063
:201200000120ADF80C004002ADF80E00ADF810400020ADF812000720ADF81400084951F8C1
:20122000250001A9FFF798FF054951F825000121FFF7B0FEFF21002000F004F806B070BDC1
:20124000303800082DE9F04104460F46002506E0681CC5B2C82D02DD0020BDE8F0811349CC
:2012600051F824000221FFF769FF0028F0D00F4951F824003946FFF76DFF002505E0681C64
:20128000C5B2C82D01DD0020E7E7084951F824000121FFF753FF0028F1D0044951F824004B
:2012A000FFF755FFC6B23046D7E700003038000801461C48814201D2002070471A4881428B
:2012C00001D20820F9E71948814201D21020F4E71748814201D21820EFE71648814201D23A
:2012E0002020EAE71448814201D22820E5E71348814201D23020E0E71148814201D2382088
:20130000DBE71048814201D24020D6E70E48814201D24820D1E70D48814201D25020CCE7E6
:201320005820CAE7004000080080000800C0000800000108000002080000040800000608BF
:201340000000080800000A0800000C0800000E0801460868704710B5FFF7A0F940F2F3104A
:20136000FFF7E4F8FFF768F910BD000070B50925FFF794F90020FFF7DFF8134C1348844234
:2013800015D210E02046FFF7E3FF401C50B12046FFF78EFF06460221FFF7E0F80546092D34
:2013A00001D003E0241D0A488442EBD300BF0120FFF7C2F8FFF740F9092D01D1002070BD4E
:2013C0004FF0FF30FBE70000008000080000FF1FFBFF0308704700000CB500200190009059
:2013E0003348006840F480303149086000BF3048006800F4003000900198401C01900098D3
:2014000018B90198B0F5A04FF1D12948006800F4003010B10120009001E000200090009874
:20142000012844D122484030006840F080502049403108601F48006840F440401D49086099
:201440001B48083000681A49083108600846006808600846006840F4805008601648091FBF
:201460000860081F006840F08070091F086000BF0F48006800F000700028F9D040F2027052
:201480000E4908600A480830006820F003000849083108600846006840F00200086000BF87
:2014A00003480830006800F00C000828F8D10CBD00380240007000400C544107003C024033
:2014C0007047000010B51548006840F47000134908601348006840F001001149086000208D
:2014E0000F49083108600E4800680E4908400C4908600D48091D0860081F006820F48020B3
:20150000091F0860002006490C310860FFF764FF4FF0006001498039086010BD88ED00E0A2
:2015200000380240FFFFF6FE1030002400BFFEE72DE9FC4100F0A7F800F09DF810B10520EA
:20154000BDE8FC8100F0E2F805460DB12846F7E7002600BF4FF0FF30009001AB04226946E6
:201560002B4801F05DF80446019868B1009800F0F9F805460DB9761C06E0254800F010FF48
:2015800001F092FB0620DBE714B901980028E1D100F0DEF801221FA11D4800F03DFF044621
:2015A0001CB101F081FB0720CAE71E4F002600BF4FF0FF30009001AB04226946144801F0FB
:2015C0002FF80446019868B138680099884202D13F1D761C06E00E4800F0E2FE01F064FBC8
:2015E0000720ADE714B901980028E1D1084800F0D7FE0DA001F041FB10B10BA001F0CCF9DF
:2016000009A104A001F0DAF801F04EFB002097E7880400206669726D776172652E62696E71
:2016200000000000008000086F6C642E62696E0000B500F005F808B9002000BD0420FCE735
:2016400005480068A0F10050B0F5803F01D8002070470220FCE70000008000080146B1F566
:20166000603F01D8002070470320FCE710B5FFF75CFA002010BD10B5FFF778FE08B9002005
:2016800010BD0520FCE710B5FFF765FE002010BD10B501F005FB08B9012010BD01220DA134
:2016A000104800F0B9FE18B101F0FEFA0220F4E70C49C868FFF7D2FF30B10A4800F070FE9F
:2016C00001F0F2FA0320E8E7064800F069FE0020E3E700006669726D776172652E62696EE8
:2016E000000000008804002070B5064844682546054908600146086880F3088800BFA84796
:2017000070BD00000080000808ED00E010B5012208A10C4800F080FE04461CB101F0C4FA26
:20172000022010BD084809490860FEF7B7FF0020F7E700006669726D776172652E62696E43
:201740000000000088040020008000081C00002010B5FEF771FF024800F022FE002010BDA8
:201760008804002010B50446144800681449884204D8124800681349884203D2FEF75CFFDA
:20178000062010BD21460D480068FEF75FFF09280ED10A4800680068A04203D0FEF74CFFB8
:2017A0000620EEE705480068001D0449086003E0FEF742FF0620E4E70020E2E71C00002078
:2017C000FCFF03080080000870B504460D460020E070401E20632946204601F061FD08B18B
:2017E000042070BD04F2322001F0B1FB4AF65521884201D00320F4E700BF94F83400E928D4
:2018000007D094F83400EB2803D094F83400E82811D1032209A104F16A0001F0B5FB08B909
:201820000020DEE7052206A104F1860001F0ACFB08B90020D5E70220D3E70000464154008E
:201840004641543332000000024600E0521C107810B110788842F9D1107870470246891E1F
:201860009069801E884201D8002070475389D06A03FB0100F9E700002DE9F04780460C46FD
:2018800004F11A0001F063FB10B10020BDE8F087207800F03F00401E00EB800101EBC005AB
:2018A0004FF00109002621E01849895D081901F04EFB0746B9F1000F11D0FF2D0BD83846A2
:2018C00001F0F8F8824629466D1C38F8110001F0F1F8824501D00020D8E7B94605E04FF6AC
:2018E000FF70874201D00020D0E7761C0D2EDBD3207800F0400038B1B9F1000F04D038F81F
:20190000150008B10020C1E70120BFE7703800082DE9F04782468846DAF80040B8F1000F0D
:2019200006D1276917B1A069B84215D8012713E04146504601F022FA0546022D02D20120D4
:20194000BDE8F087681C08B92846F9E7A069A84201D92846F4E74746606908B90020EFE7B5
:201960000026474518D17E1CA069B04200D802263146504601F002FA0546012D01D0681C6F
:2019800008B92846DCE73DB12569022D03D3A069A84200D92F460026E6B93E4600BF761CF9
:2019A000A069B04204D80226BE4201D90020C7E73146504601F0E2F9054605B909E0012D87
:2019C00001D0681C08B92846BAE7BE42E7D10020B6E700BF4FF0FF323146204601F0C0FCB4
:2019E0008146B9F1000F08D1B8F1000F05D032464146204601F0B4FC8146B9F1000F0DD19D
:201A00002661D4E90510801E814202D86069401E6061207940F00100207107E0B9F1010F4E
:201A200002D14FF0FF3000E001200646304687E72DE9F34F83B08146049800680090D9F87D
:201A40000000D0F80CA0002500BF684601F054FE83460BF1010018B9062005B0BDE8F08FA7
:201A6000BBF5803F05D34FEA1B4228466D1C2AF810201FFA8BF4202C03DB2F2C01D05C2CCA
:201A800000D111E0802C06DA21467BA0FFF7DCFE08B10620E1E7FF2D01D30620DDE72846A7
:201AA0006D1C2AF81040D0E700BF202C01DA04260CE0002602E00098401C009000980078DC
:201AC0002F28F8D0009800785C28F4D000990498016008E0681E3AF81040202C02D02E2C91
:201AE00000D002E06D1E002DF4D100BF00202AF815000DB90620B0E7002700E07F1C3AF84A
:201B000017002028FAD01FB93AF817002E2801D146F0030600E06D1E25B1681E3AF810000B
:201B20002E28F8D10B22202109F1200001F04BFA4FF00008CDF808800820019000BF38463E
:201B40007F1C3AF8104004B96AE0202C03D02E2C04D1AF4202D046F00306F0E7DDE9011063
:201B6000884201D2AF4216D101980B2802D146F0030655E0AF4201D046F00306AF4200D912
:201B80004EE02F46082002900B2001904FEA88604FEA1068D3E7802C0EDB46F0020640F29B
:201BA000B511204600F066FF044604F0800018B104F07F0033490C5CFF2C11DD0198401EB6
:201BC0000299884204D846F0030601980290B6E722120298411C029109F120010A5418E08E
:201BE00024B1214628A0FFF72FFE18B15F2446F003060EE0412C03DB5A2C01DC48F0020855
:201C0000612C06DB7A2C04DC48F00108A4F1200084B20298411C029109F120010C548EE72A
:201C200000BF99F82000E52802D1052089F820000198082803D14FEA88604FEA106808F027
:201C40000C000C2803D008F00300032801D146F0020606F0020048B908F0010008B146F05A
:201C6000100608F0040008B146F008062B2000F809600020F1E60000222A3A3C3E3F7C7F78
:201C8000000000007D3800082B2C3B3D5B5D0000014609B1002070470020FCE72DE9F041DE
:201CA00004460E46D4F800800021204600F0A6FA0546EDB9002700BF4046A16901F0F0FAE1
:201CC000054605B113E0E0690078E52802D0E069007820B9781C0746B04201D107E0002723
:201CE0000121204600F0EBF80546002DE4D000BF042D00D107252846BDE8F0812DE9F0479F
:201D000004468946204601F0D1FC10B10120BDE8F08749462046FFF7A1FD074627634FF4E5
:201D20000072002104F1340001F04DF960894FF40041B1EB402F01D8084601E06089400205
:201D400006464FF0000800E07608B6F5007F05D9304600F083FEB0F10008F5D0B6F5007F0B
:201D600017D932460021404601F02DF9760A002500E035446089A84207D97A1960783346A8
:201D8000414600F0E1FA0028F3D0404600F06CFE10E004F134080126002500E03544608977
:201DA000A84207D97A1960783346414600F0CCFA0028F3D06089A84201D00120A7E70020DA
:201DC000A5E72DE9F0470446D4F800A00021204600F014FA064616B13046BDE8F0874FF00B
:201DE000FF08C1464FF0FF30E06200BF5046A16901F056FA064606B15EE0E06905780DB9B8
:201E0000042659E0E069C07A00F03F07A771E52D04D007F0080038B10F2F05D04FF0FF0867
:201E20004FF0FF30E06240E00F2F22D12B20005D00F0400098BB05F0400038B1E06990F887
:201E40000D9005F0BF05A8462069E06245450CD1E069407B484508D1E169DAF80C00FFF784
:201E60000BFD10B1A8F1010000E0FF2000F0FF081BE0B8F1000F05D1E06901F0BEFB484500
:201E800000D119E02B20005D00F0010040B90B2204F12001E06901F077F808B90CE004E069
:201EA0004FF0FF084FF0FF30E0620021204600F006F80646002E99D000BF30468DE72DE915
:201EC000F041044688462768206900F12006B6F5001F01D30020A061A06910B90420BDE830
:201EE000F081C6F30800002845D1A069401CA061606938B93889B0EB561F3CD80020A0614C
:201F00000420ECE77889401E00EA562098BB2046616900F033FF0546012D01D80220DEE72D
:201F2000681C08B90120DAE7B869A8421DD8B8F1000F03D10020A0610420D0E720466169C2
:201F4000FFF7E6FC05460DB90720C8E7012D01D10220C4E7681C08B90120C0E729463846FB
:201F6000FFF7CCFE08B10120B9E7656129463846FFF774FCA0612661C6F3080107F1340098
:201F80000844E0610020AAE72DE9F05F044689460426D4F800A04FF0FF08C34653E05046D7
:201FA000A16901F07DF9064606B14FE0E06905780DB904264AE0E069C07A00F03F07A771CD
:201FC000E52D0AD02E2D08D027F02000082801D1012000E00020484502D04FF0FF082BE0D8
:201FE0000F2F1DD105F0400038B1E06990F80DB005F0BF05A8462069E06245450CD1E069E7
:020000040800F2
:20200000407B584508D1E169DAF80C0001F062F910B1A8F1010000E0FF2000F0FF080BE0DF
:20202000B8F1000F04D1E06901F0E7FA584502D04FF0FF30E06209E000212046FFF73FFF35
:20204000064606B102E0A0690028A8D100BF0EB10020A0613046BDE8F09F2DE9FE4F0446FB
:2020600026682B20005D00F0A00010B10620BDE8FE8F4FF0000901E009F10109F06830F8D4
:2020800019000028F8D10C2204F12001684600F08DFF9DF80B0000F0010028B340212B20B0
:2020A00001554FF001080EE04346694604F12000F26800F0FDFD2046FFF783FE054605B125
:2020C00004E008F10108B8F1640FEDD300BFB8F1640F01D10720CAE7042D01D02846C6E79C
:2020E0009DF80B102B2001559DF80B0000F0020030B109F10C000D21B0FBF1F0401C00E020
:202100000120074639462046FFF7C8FD05464DBB781E071E26D02069A0EB4711204600F0EB
:202120006DF80546F5B904F1200001F066FA824600BF3046A16901F0B3F8054605B110E047
:20214000FAB2E1695346F06801F0A6F90120F07000212046FFF7B3FE054615B9781E071E85
:20216000E7D100BFC5B93046A16901F099F8054695B920220021E06900F025FF0B2204F1ED
:202180002001E06900F012FF2B20005D00F01800E16908730120F070284668E72DE9F041DA
:2021A000044626682769E06A401C08B9002003E02046E16A00F022F80546E5B900BF304674
:2021C000A16901F06DF8054605B110E000BFE520E16908700120F0702069B84200D306E06B
:2021E00000212046FFF76BFE0546002DE7D000BF042D00D102252846BDE8F0812DE9F04117
:2022000004460D462668B5F5001F02D205F01F0010B10220BDE8F0812561A7681FB93078D4
:20222000032800DBB76A47B93089B0EB551F01D80220EFE7B06AA0611CE070894FEA40282D
:2022400011E03946204600F099FD0746781C08B90120DFE7022F02D3B069B84201D8022085
:20226000D8E7A5EB08054545EBD239463046FFF7F5FAA0616761A06908B90220CAE7A06972
:2022800000EB5520A061C5F3080106F134000844E0610020BEE7000070B50446002504E027
:2022A00001200D494855681CC5B2022DF8DB14B1012C0BD109E0FEF755FC28B90648005D84
:2022C00020F001000449085502E001E0042070BD00BF0148005DFAE70D00002003460BB9AF
:2022E000002070470420FCE72DE9F04104460E4617461D4615B90420BDE8F0810C48005DA2
:2023000000F0010008B10320F6E714B1012C0CD109E0EAB239463046FEF7ECFC08B900200C
:20232000EAE70120E8E70120E6E70420E4E700000D0000200146022901DB01207047014863
:20234000405CFBE70D0000202DE9F04104460E4617461D4615B90420BDE8F0810F48005D71
:2023600000F0010008B10320F6E70C48005D00F0040008B10220EFE714B1012C0CD109E0A5
:20238000EAB239463046FEF7BDFD08B90020E3E70120E1E70120DFE70420DDE70D0000206D
:2023A00038B50546284600F0A7FA04463CB96946284601F007FA04460CB90020286020467B
:2023C00038BD0000F7B582B016460398019001A800F044FD0546002D02DA0B2005B0F0BDE7
:2023E0000C4850F825400CB100202070029810B10020029908700749029841F825000EB9D2
:202400000020EBE7002202A903A800F0F5FD07463846E3E7100000202DE9F74F8EB00446C7
:2024200016461CB9092011B0BDE8F08F06F03F06324601A90FA800F0DFFD0546002D74D1C0
:20244000019802904FF4007000F008FB8346BBF1000F01D11120E6E70198C0F80CB002A8A0
:202460000F9900F0BBFB05462DB99DF8330000F0800000B1062506F01C0000284DD045B17C
:20248000042D03D102A8FFF7E8FD054646F008060AE09DF80E0000F0110008B1072503E0CD
:2024A00006F0040000B10825002D48D106F00800002844D00999019800F02AFD8146099909
:2024C00001F10E00554901F086F820200999C87200220999019801F06CF8099901F11C0071
:2024E000002101F078F801200199C870B9F1000F25D00198D0F830A00022494602A801F03C
:202500000BF80546DDB95146019800F0C9FE0546A9F101000199086111E085B99DF80E0035
:2025200000F0100010B1042509E071E006F0020028B19DF80E0000F0010000B107254DB92F
:2025400006F0080008B146F040060198006B206209986062002D58D10999019800F0D8FC0A
:20256000A060099901F11C0000F0E5FCE060019820600198C088A080267400206074E061B1
:2025800060614FF40072002104F1280000F01BFD06F0200058B3E06848B3E0686061019879
:2025A000408940020090A768D4F80C800DE03946204600F0E3FB0746012F00D80225781C69
:2025C00000B901250098A8EB000815B900988045EDD8A7615DB9C8F3080040B1394601980F
:2025E000FFF73CF98246BAF1000F01D102250CE00AEB5820E061E26901994878012304F1DD
:202600002801FFF771FE00B10125584600F02CFA0DB100202060284605E700000000214E7A
:202620002DE9FF4F85B0044615469A46DDF818B00020CAF8000003A9204601F0C3F80490AB
:20264000049810B9607C049018B1049809B0BDE8F08F207C00F0010008B90720F6E7616947
:20266000E068401A01900198854200D9019DA0E0A08AC0F3080000287ED103984089401EB2
:20268000616900EA5129B9F1000F17D1606910B9A068029004E02046A16900F06FFB0290FF
:2026A0000298022802D202206074CFE70298401C10B901206074C9E70298A061A169039832
:2026C000FFF7CCF8064616B902206074BEE74E444FEA5528B8F1000F29D009EB08000399F9
:2026E0004989884203D903984089A0EB090803994878434632465946FFF7F6FD10B101209B
:202700006074A3E7207C00F0800068B1E069801B404509D2E169891B0BEB41204FF40072F8
:2027200004F1280100F042FC4FEA482737E0E069B04220D0207C00F0800078B1E269039947
:202740004878012304F12801FFF7FEFD10B1012060747BE7207C00F07F0020740399487873
:202760000123324604F12801FFF7BEFD18B1012060746BE700E0E661A08AC0F30800C0F51D
:202780000077AF4200D92F46A08AC0F3080204F1280011183A46584600F008FC00BFED1B7D
:2027A000DAF800003844CAF80000BB44606938446061002D7FF45CAF002047E72DE9F341C1
:2027C000A2B023A800F04AFB022209A922A800F013FC0446002C7DD1099816904FF400704A
:2027E00000F03CF907461FB9112024B0BDE8F0810998C76016A8229900F0F0F904462CB92B
:202800009DF8830000F0A00000B10624002C6ED1202201A81D9900F0C9FB302216A90AA8B2
:2028200000F0C4FB0AA8239900F0D8F904465CB918990C98884205D11A990E98884201D171
:20284000042000E008200446042C46D10AA8FFF704FC0446002C40D1119D13220DF1110199
:2028600005F10D0000F0A2FB9DF80F00E872E87A00F0100018B9E87A40F02000E87201206A
:202880000999C870E87A00F0100030B30C991898884222D02946099800F03AFB8046414686
:2028A0000998FEF7DBFF06460EB9022415E03146099800F0F5FC0446099800F1540564B92F
:2028C00068782E2809D129460C9A099800F071FE012000E00EE00999C87044B916A8FFF759
:2028E0005DFC04461CB9099800F098FE0446384600F0BAF8204678E7F8B5044669462046FE
:2029000000F060FF0646002E42D1207C00F0400000283DD0207C00F0800070B1E2690099C9
:202920004878012304F12801FFF70EFD08B10120F8BD207C00F07F002074164F216A0098DE
:2029400000F0AEFC06461EBB656AE87A40F02000E8722946A268206800F02BFE05F11C00B1
:20296000E16800F038FE394605F1160000F033FE002105F1120000F03AFE01200099C870F9
:20298000009800F04BFE0646207C00F0BF0020743046CDE70000214E71B599B000260222E9
:2029A000694619A800F028FB0446002C54D100980D904FF4007000F051F8054615B911208E
:2029C0001AB070BD0098C5600DA8199900F006F9044600BF002C3CD19DF85F0000F0800047
:2029E00008B1062405E09DF83A0000F0010000B10724E4B91499009800F08AFA06469DF83C
:202A00003A0000F0100090B1009801900396002101A8FFF7F3FB04464CB9002101A8FFF7BC
:202A2000B3FA044604B90724042C00D1002484B90DA8FFF7B3FB044634B92EB1002231464D
:202A40000DA800F069FD04461CB9009800F0E6FD0446284600F008F82046B1E710B504462C
:202A60002046FDF70BFC10BD10B504462046FDF734FC10BD10B5024600200D4B802A01D2C0
:202A800090B213E0B2F5803F10D240F2B514A1420CD1002001E0441CA0B2802803DA33F89B
:202AA00010409442F7D100F18004E0B210BD0000FE38000870B5B0F5803F4DD281B2B1F595
:202AC000805F01DA254E00E0254E324600BF32F8023B0BB1994200DA3CE032F8024B25129D
:202AE000E4B21E198E4230DD092D2CD2DFE805F005090F13171B1F232700CE1A32F8161039
:202B000021E0CE1A06F001068E1BB1B21BE0A1F11006B1B217E0A1F12006B1B213E0A1F126
:202B20003006B1B20FE0A1F11A06B1B20BE001F10806B1B207E0A1F15006B1B203E0A1F5FF
:202B4000E356B1B200BF00BF04E0002DBFD102EB4402BCE700BF084670BD0000FE3900086B
:202B6000F03B00082DE9FF4107460D4600213846FEF72AFE0646022E06D0032E00D21DB945
:202B8000304604B0BDE8F08100BF00240AE007F5F97101EB041101F1080000F0CCF94DF8CD
:202BA0002400641C042CF2D30DB1681E00E00020044600BF5DF8240028B15DF824103846D6
:202BC000FEF702FE00E0032006462DB9022E03D3601C04460428EDD33046D2E72DE9F3419A
:202BE0000446276802E00198401C0190019800782F28F8D0019800785C28F4D00020A060EB
:202C000001980078202808D280212B20015500212046FFF7F3FA05462CE000BF01A92046AF
:202C2000FEF706FF054605B123E02046FFF7C9F805462B20065D3DB1042D04D100BF06F0D7
:202C4000040000B9052514E006F0040000B110E0A07900F0100008B905250AE0208AC0F3B3
:202C6000080207F134001118384600F051F9A060D4E700BF2846BDE8FC8110B5ADF50A7D45
:202C80000446002221466846FFF7C6FB30B96846FFF786FB01200DF50A7D10BD0020FAE776
:202CA00010B500F099F910BD10B500F07DFD10BD2DE9FF4F83B0804691461E460B224046B9
:202CC000049900F073F9052E18D9374611E039F802BB00250BE0584667F35F0007464FEA8E
:202CE0006B0B07F4803008B1234847406D1C102DF1D3B9F800000028E9D13E46072500BF7C
:202D000006F00F0000F1300ABAF1390F03DD0AF1070000F0FF0A28466D1E01A901F800A079
:202D20003609002EECD17E20485500240AE018F80400FEF7ADFF20B1681EA04200D107E07A
:202D4000641C641CAC4203D218F804002028EED100BF00BF082D04D228466D1C01A9085C07
:202D600000E020202146641C08F80100082CF1D307B0BDE8F08F0000211001002DE9F047F9
:202D800081460C46D9F80050022C02D3A869A04202D84FF001085EE04FF0FF382878012864
:202DA00004D002282CD0032851D13CE0264606EB5606686A00EB5621284600F071FA00B149
:202DC00048E03046761CC0F3080105F13400475C686A00EB5621284600F062FA00B139E082
:202DE000C6F3080105F13400405C47EA002704F0010008B1380901E0C7F30B00804629E08F
:202E0000686A00EB1421284600F04AFA00B121E040F2FF1101EA440205F13401501800F076
:202E200096F8804616E0686A00EBD411284600F037FA00B10EE040F2FF1101EA840205F1CF
:202E40003401501800F077F820F0704802E04FF0010800BF00BF4046BDE8F087F0B5064673
:202E60004FF0FF30D6F800C06146634601B9F0BD00BF13F8012B202A01D33A2AF9D13A2AF9
:202E800040D1022591F800C0BCF1300F0DDB91F800C0BCF1390F08DC01F1020C9C4504D105
:202EA00091F800C0ACF1300527E0002500BFDFF85CC05CF82570316800BF17F8014B11F874
:202EC000012B612C05DB7A2C03DCA4F1200C0CF0FF04612A05DB7A2A03DCA2F1200C0CF06B
:202EE000FF020CB19442E8D00CB9994205D005F1010C6546BCF1020FD9DB022D01DA284679
:202F00003360B4E7002000BFB1E700006838000870B505460C4604F11A0000F018F8064647
:202F20002878032805D104F1140000F010F846EA0046304670BD0146C8788A7842EA002001
:202F40004A7842EA00200A7842EA00207047014648780A7842EA002070474FF4A060FDF71B
:202F600089FDFEF795FB00B108E0FEF7E1FA00B104E0FEF75DFB00B100E000BFFEF776FB45
:202F8000FEF7B2FB00BFFEE7F0B503461D460C46002000BF15F8017B14F801CBA7EB0C006A
:202FA000561E321E01D00028F4D0F0BD30B503460C463AB100BF14F8015B03F8015B551E87
:202FC0002A1EF8D130BD10B5034600BF03F8011B541E221EFAD110BD10B5012204A10548EB
:202FE000FFF7F0F908B9012010BD0020FCE7000053443A00200000202DE9F74F84B000217E
:20300000059801600498FFF729FF03900398002803DA0B2007B0BDE8F08F9C49039851F8F6
:2030200020400CB90C20F5E705980460069800F0FE000690207878B16078FFF77BF90746F0
:2030400007F0010040B9069820B107F0040008B10A20DFE70020DDE700202070039860706D
:203060006078FFF719F9074607F0010008B10320D0E7069820B107F0040008B10A20C9E79B
:2030800000212046FFF76EFD0546042D01D10120C0E7022D01D30D20BCE7D4F8309004F1DE
:2030A0003F00FFF754FFB0F5007F01D00D20B1E704F14A00FFF74BFF064626B904F15800D7
:2030C000FFF739FF0646E6614420005DA070A078012804D0A078022801D00D209AE7A07870
:2030E00046434120005D6081608918B16089411E084008B10D208DE704F14500FFF727FFB6
:203100002081207A00F00F0008B10D2082E704F14700FFF71CFF8246BAF1000F04D104F18D
:203120005400FFF708FF824604F14200FFF70FFF8346BBF1000F01D10D206BE70BEB06006A
:20314000218900EB111002900298824501D20D2060E70298AAEB00006189B0FBF1F8B8F129
:20316000000F01D10D2055E700254948804500D803254FF6F570804500D8022540F6F57081
:20318000804500D801250DB90D2043E708F10200A061C4F8209009EB0B0060620298484400
:2031A000E062032D13D104F15E00FFF7D0FE08B10D202FE7208908B10D202BE704F16000B0
:2031C000FFF7B9FEA062A0698000019014E0208908B90D201EE7606A3044A062022D02D154
:2031E000A069400007E0207E00F00100A16901EB410100EB51000190E169019800F2FF1027
:20320000B1EB502F01D20D2004E74FF0FF306061206180202071032D2DD104F16400FFF74A
:2032200096FE012827D109F10101204600F038F808BB0020207104F23220FFF788FE4AF6DF
:203240005521884217D104F13400FFF774FE1149884210D104F50670FFF76DFE0E498842BF
:2032600009D104F50770FFF766FE606104F50870FFF761FE2061257008480088401C80B2A7
:2032800006490880E0800020C4E6000010000020F5FFFF0F525261417272416118000020F7
:2032A00070B504460D460026206BA84210D0204600F0FCF906465EB9607801232A4604F1C2
:2032C0003401FFF711F810B14FF0FF3501262563304670BD2DE9F04780460C4604F11A00C0
:2032E000FFF735FE10B10020BDE8F087207820F04000401E00EB800101EBC0054FF00109FC
:20330000002619E01549895D0819FFF720FE0746B9F1000F09D0FF2D01D90020E4E7B94646
:2033200028466D1C28F8107005E04FF6FF70874201D00020D8E7761C0D2EE3D3207800F0D9
:20334000400048B1B9F1000F06D0FF2D01D90020CAE7002028F815000120C5E770380008FC
:203360002DE9F04704460D4616464FF00209022D74D3A069A84271D92078012804D002284B
:2033800049D003280DD15EE02F4607EB5707606A00EB57212046FFF783FF8146B9F1000F7D
:2033A00000D075E038467F1CC0F3080104F1340001EB000805F0010028B1F1B298F80000F4
:2033C00061F31F1000E0304688F800000120E070606A00EB57212046FFF762FF8146B9F1C8
:2033E000000F00D054E0C7F3080104F1340001EB000805F0010010B1C6F3071006E098F8DD
:20340000000000F0F000C6F30321084388F800000120E0703CE0606A00EB15212046FFF750
:203420003FFF8146B9F1000F00D031E0B1B240F2FF1202EA450304F13402981800F0D7F879
:203440000120E07024E0606A00EBD5112046FFF727FF8146B9F1000F01D019E019E040F265
:20346000FF1101EA850204F134015018FFF763FD66F31B00064640F2FF1101EA850204F179
:2034800034015018314600F0A6F80120E07000BF00BF4846BDE8F0872DE9F04707460C4605
:2034A0001546984684F80D800F20E07200202073002104F11A0000F09AF8681E00EB8001F2
:2034C00001EBC00900200646824600BF4FF6FF70864204D0484609F1010937F810600D496D
:2034E00011F80A100819314600F081F80EB94FF6FF760AF1010082460D28E7D34FF6FF70C0
:20350000864202D037F8190008B945F040052570BDE8F087703800082DE9F04781460E46C5
:2035200017464FF00008D9F80040022E02D3A069B04202D80220BDE8F08767B100BF4FF0A8
:20354000FF3239462046FFF70BFF8046B8F1000F01D04046EFE700BF31464846FFF70EFCE6
:20356000054605B922E0012D01D10220E3E7681C08B90120DFE7002231462046FFF7F0FE45
:203580008046B8F1000F01D04046D4E7D4E90510801E814206D26069401C6061207940F0E1
:2035A000010020712E46A069B042D5D800BF0020C1E770B506460C461546A9B204F11A004E
:2035C00000F015F83078032804D1290C04F1140000F00DF870BD00F8011B090A00F8011BAB
:2035E000090A00F8011B090A00F8011B704700F8011B091200F8011B704730B50146002080
:203600000B2200BF431003EBC01411F8015B6319D8B2531E1A1EF5D130BD000070B5044673
:20362000204600F043F80546002D38D1207803282ED1207901282BD14202002104F134006A
:20364000FFF7C1FC4AF6552104F23220FFF7CFFF144904F13400FFF7BEFF134904F50670F1
:20366000FFF7B9FF04F507706169FFF7B4FF04F508702169FFF7AFFF206A401C20636078D9
:20368000012304F13401226BFEF75EFE00202071607800221146FEF721FE00B101252846A3
:2036A00070BD0000525261417272416170B504460025E078E8B16078012304F13401226BD9
:2036C000FEF742FEA0B90020E070616A206B401AE16988420DD2A07802280AD1E369216B54
:2036E000CA186078012304F13401FEF72DFE00E00125284670BD000070B50446226812F8FE
:20370000011B01F08000002847D001F0E000C02803D101F01F01012312E001F0F000E02840
:2037200003D101F00F0102230AE001F0F800F02803D101F00701032302E04FF0FF3070BD34
:2037400000BF12F8015B05F0C000802802D04FF0FF30F4E7284661F39F100146581E031E7D
:20376000EFD1802908D3B1F5584F02D3B1F5604F02D3B1F5881F02D34FF0FF30DFE7B1F5BD
:20378000803F0AD3A1F58030054E06EA8010054E3043C1F3090640EA060122600846CEE735
:2037A0000000FF0300DC00D810B5012204A10020FEF708FE08B9012010BD0020FCE70000F9
:2037C00053443A0070B504460D4609268CB1206878B12068007860B1A0882168C98888425C
:2037E00007D121684878FEF7A5FD00F0010000B900260EB9206800E000202860304670BDC7
:203800004FF04070E1EE100A70470000000002400004024000080240000C024000100240A7
:203820000014024000180240001C0240002002400030014000380040003C004001100000A2
:203840000240000002800000200000200800400000401000800000802000050D08060E106E
:20386000070F200505060000AC3C0008B03C000801030507090E10121416181C1E809A45FA
:20388000418E418F804545454949498E8F9092924F994F555559999A9B9C9D9E9F41494F37
:2038A00055A5A5A6A7A8A9AAABACADAEAFB0B1B2B3B4B5B6B7B8B9BABBBCBDBEBFC0C1C205
:2038C000C3C4C5C6C7C8C9CACBCCCDCECFD0D1D2D3D4D5D6D7D8D9DADBDCDDDEDFE0E1E298
:2038E000E3E4E5E6E7E8E9EAEBECEDEEEFF0F1F2F3F4F5F6F7F8F9FAFBFCFDFEFF00C700B4
:20390000FC00E900E200E400E000E500E700EA00EB00E800EF00EE00EC00C400C500C90078
:20392000E600C600F400F600F200FB00F900FF00D600DC00A200A300A500A7209201E10035
:20394000ED00F300FA00F100D100AA00BA00BF001023AC00BD00BC00A100AB00BB00912593
:20396000922593250225242561256225562555256325512557255D255C255B2510251425FB
:2039800034252C251C2500253C255E255F255A25542569256625602550256C2567256825FA
:2039A0006425652559255825522553256B256A2518250C25882584258C2590258025B10368
:2039C000DF009303C003A303C303B500C403A6039803A903B4031E22C603B5032922612291
:2039E000B1006522642220232123F7004822B0001922B7001A227F20B200A025A00061002C
:203A00001A03E0001703F8000703FF00010078010001300132010601390110014A012E01E3
:203A20007901060180014D0043028101820182018401840186018701870189018A018B0128
:203A40008B018D018E018F0190019101910193019401F60196019701980198013D029B011C
:203A60009C019D0120029F01A001A001A201A201A401A401A601A701A701A901AA01AB017F
:203A8000AC01AC01AE01AF01AF01B101B201B301B301B501B501B701B801B801BA01BB01E3
:203AA000BC01BC01BE01F701C001C101C201C301C401C501C401C701C801C701CA01CB018B
:203AC000CA01CD011001DD0101008E01DE011201F3010300F101F401F401F80128012202C3
:203AE00012013A020900652C3B023B023D02662C3F0240024102410246020A0153024000A1
:203B000081018601550289018A0158028F015A0290015C025D025E025F0293016102620280
:203B200094016402650266026702970196016A02622C6C026D026E029C01700271029D01BC
:203B4000730274029F0176027702780279027A027B027C02642C7E027F02A601810282023E
:203B6000A9018402850286028702AE014402B101B20145028D028E028F0290029102B7014F
:203B80007B030300FD03FE03FF03AC0304008603880389038A03B1031103C2030200A3038C
:203BA000A303C4030803CC0303008C038E038F03D8031801F2030A00F903F303F403F50335
:203BC000F603F703F703F903FA03FA033004200350041007600422018A043601C1040E0120
:203BE000CF040100C004D00444016105260400007D1D0100632C001E9601A01E5A01001F6D
:203C00000806101F0606201F0806301F0806401F0606511F0700591F521F5B1F541F5D1F7D
:203C2000561F5F1F601F0806701F0E00BA1FBB1FC81FC91FCA1FCB1FDA1FDB1FF81FF91FF0
:203C4000EA1FEB1FFA1FFB1F801F0806901F0806A01F0806B01F0400B81FB91FB21FBC1FB9
:203C6000CC1F0100C31FD01F0206E01F0206E51F0100EC1FF31F0100FC1F4E210100322177
:203C800070211002842101008321D0241A05302C2F04602C0201672C0601752C0201802C1C
:203CA0006401002D260841FF1A0300005344000055000000D43C00080000002020000000A3
:203CC000D0010008F43C000820000020F02A0000EC010008000002400004024000040240B6
:203CE0000001010000000000000000000000000000800008FFFFFFFFFFFFFFFFFFFFFFFF46
:203D0000FFFFFFFFFFFFFFFFFFFFFFFFFFFFFFFFFFFFFFFFFFFFFFFFFFFFFFFFFFFFFFFFC3
:203D2000FFFFFFFFFFFFFFFFFFFFFFFFFFFFFFFFFFFFFFFFFFFFFFFFFFFFFFFFFFFFFFFFA3
:203D4000FFFFFFFFFFFFFFFFFFFFFFFFFFFFFFFFFFFFFFFFFFFFFFFFFFFFFFFFFFFFFFFF83
:203D6000FFFFFFFFFFFFFFFFFFFFFFFFFFFFFFFFFFFFFFFFFFFFFFFFFFFFFFFFFFFFFFFF63
:203D8000FFFFFFFFFFFFFFFFFFFFFFFFFFFFFFFFFFFFFFFFFFFFFFFFFFFFFFFFFFFFFFFF43
:203DA000FFFFFFFFFFFFFFFFFFFFFFFFFFFFFFFFFFFFFFFFFFFFFFFFFFFFFFFFFFFFFFFF23
:203DC000FFFFFFFFFFFFFFFFFFFFFFFFFFFFFFFFFFFFFFFFFFFFFFFFFFFFFFFFFFFFFFFF03
:203DE000FFFFFFFFFFFFFFFFFFFFFFFFFFFFFFFFFFFFFFFFFFFFFFFFFFFFFFFFFFFFFFFFE3
:203E0000FFFFFFFFFFFFFFFFFFFFFFFFFFFFFFFFFFFFFFFFFFFFFFFFFFFFFFFFFFFFFFFFC2
:203E2000FFFFFFFFFFFFFFFFFFFFFFFFFFFFFFFFFFFFFFFFFFFFFFFFFFFFFFFFFFFFFFFFA2
:203E4000FFFFFFFFFFFFFFFFFFFFFFFFFFFFFFFFFFFFFFFFFFFFFFFFFFFFFFFFFFFFFFFF82
:203E6000FFFFFFFFFFFFFFFFFFFFFFFFFFFFFFFFFFFFFFFFFFFFFFFFFFFFFFFFFFFFFFFF62
:203E8000FFFFFFFFFFFFFFFFFFFFFFFFFFFFFFFFFFFFFFFFFFFFFFFFFFFFFFFFFFFFFFFF42
:203EA000FFFFFFFFFFFFFFFFFFFFFFFFFFFFFFFFFFFFFFFFFFFFFFFFFFFFFFFFFFFFFFFF22
:203EC000FFFFFFFFFFFFFFFFFFFFFFFFFFFFFFFFFFFFFFFFFFFFFFFFFFFFFFFFFFFFFFFF02
:203EE000FFFFFFFFFFFFFFFFFFFFFFFFFFFFFFFFFFFFFFFFFFFFFFFFFFFFFFFFFFFFFFFFE2
:203F0000FFFFFFFFFFFFFFFFFFFFFFFFFFFFFFFFFFFFFFFFFFFFFFFFFFFFFFFFFFFFFFFFC1
:203F2000FFFFFFFFFFFFFFFFFFFFFFFFFFFFFFFFFFFFFFFFFFFFFFFFFFFFFFFFFFFFFFFFA1
:203F4000FFFFFFFFFFFFFFFFFFFFFFFFFFFFFFFFFFFFFFFFFFFFFFFFFFFFFFFFFFFFFFFF81
:203F6000FFFFFFFFFFFFFFFFFFFFFFFFFFFFFFFFFFFFFFFFFFFFFFFFFFFFFFFFFFFFFFFF61
:203F8000FFFFFFFFFFFFFFFFFFFFFFFFFFFFFFFFFFFFFFFFFFFFFFFFFFFFFFFFFFFFFFFF41
:203FA000FFFFFFFFFFFFFFFFFFFFFFFFFFFFFFFFFFFFFFFFFFFFFFFFFFFFFFFFFFFFFFFF21
:203FC000FFFFFFFFFFFFFFFFFFFFFFFFFFFFFFFFFFFFFFFFFFFFFFFFFFFFFFFFFFFFFFFF01
:203FE000FFFFFFFFFFFFFFFFFFFFFFFFFFFFFFFFFFFFFFFFFFFFFFFFFFFFFFFFFFFFFFFFE1
:020000040800F2
:20400000FFF755F82268536903F008035361206802F07AF8C50208D500212046FFF78EF8D2
:204020002268536903F480135361206802F06CF8800208D500212046FFF77CF82268536988
:2040400003F400135361206802F05EF8410007D52046FFF777F82268536903F0804353613A
:20406000206802F051F842070AD523685D686B0702D52046FFF76AF8226853682B43536098
:2040800007B0BDE8F08F2068DFF810B302F040F806F53065804604F5017A4FF00009B8F13E
:2040A000000F3FF4E0AE18F0010F00F0A3805FFA89F12068039102F03BF810F0010F039945
:2040C00007464DD00123AB6023682069D3F840C003F5306303EB491301289A6854D110072C
:2040E00014D5DC4504D9120444BF4FF400429A6020460393FEF7C4FF04F571722068012107
:2041000002F052F8039B08229A6029E0900601D52022F9E712F0280F22D1DC4504D91204CA
:2041200002D54FF40042EFE71B69DAF80020C3F31203D31ACAF81030DAF804301A44CAF8F7
:2041400004202046FEF7A2FFB9F1000F08D1D4F810322BB9206804F57172012102F024F827
:20416000380732D5236820691A6C03F5306303EB49130128996814D15A4515D9090444BFDE
:204180004FF4004199600FE08348844505D11004C7D4920644BF20229A602046FEF776FFF3
:2041A000DEE77D488242E9D020460392FEF768FF039A5A4507D92169012904D1206804F57B
:2041C000717201F0F1FF0823AB60FB0644BF1023AB60B80609D52169012904D1206804F5FD
:2041E000717201F0E1FF2023AB60B90444BF4FF40053AB6009F101094FEA580820350AF16F
:204200001C0A4CE7039BDA0740F187805FFA88FB2068594601F095FFC307074624D5D6F828
:204220003438012008F00F0200FA02F223EA0203C6F834382369C9F80800834202BFD5E925
:2042400011239B18AB6459462046FEF728FF2169012909D1B8F1000F06D1236D23B9206836
:2042600004F5717201F0A0FF380744BF0823C9F80830F90644BF1023C9F808307A0644BFBB
:204280004023C9F80830BB0744BF0223C9F808303F0642D5D5E914329A423ED89B1A6A6C02
:2042A000D4F800A0934228BF134603339B0804930AF5106303EB48130593059B04999A697A
:2042C00092B28A42D5E9147325D39F4200D95FB9DAF8343808F00F02012101FA02F223EA5A
:2042E0000203CAF8343818E0FF1A6B6C9F4228BF1F46FB1C9B080493237C0093A96CBBB271
:204300005A46504601F074FDAB6C3B44AB646B6D1F446F65D1E79F42DAD9039B5B0808F10B
:20432000010803931C3509F12009AAE52046FEF7E7FEC0E599601A6822F400121A60C3F81E
:204340000812D3F8002222F40012C3F80022029A013202922033D9E56B6943F4005343F04C
:204360002B036B612B6943F00B032B61E5E5062B7FF43BAE082204F57171304601F03AFEE7
:204380001C2303FB0545C7F30A17D5F814321F44C5F8147229E600BF0A31544F0A30544F79
:2043A00010B590F8BC23012A04460BD0012280F8BC2380F83810006801F07EFE002084F8D6
:2043C000BC0310BD0220FCE770B501F00F06C6EBC60411F0800F05464FEA84044FF01C00AF
:2043E0001FD000FB065004F13C010124294480F83D408A604A780E70CB7002B1CE80022B31
:2044000004BF00230B7195F8BC33012B12D00123286885F8BC3301F002FC002085F8BC0345
:2044200070BD00FB065004F5FE710024294480F8FD41DEE70220F3E710B5044601F00F007F
:20444000C0EBC00311F0800F4FEA83034FF01C0216D002FB004203F13C010123214482F8E9
:204460003D30087094F8BC33012B12D00123206884F8BC3301F012FC002084F8BC0310BD90
:2044800002FB004203F5FE710023214482F8FD31E7E70220F3E738B501F00F051C2404FB4B
:2044A000050104FB050401F5FE71C4F810320023C4F80822C4F8143284F8FD3184F8FC510D
:2044C00003690068012B08BFC4F80C22DAB21DB901F014FC002038BD01F09EFCFAE701F056
:2044E0000F011C2303FB0100D0F81402704738B501F00F051C2404FB050104FB05043C312D
:204500002365002363650123A26484F83D3084F83C5003690068012B08BFE264DAB21DB99E
:2045200001F0ECFB002038BD01F076FCFAE738B5436801F00F059D4204462CD811F0800FF0
:204540004FF01C001ED000FB054200FB054101233C3182F83D3001238B700D7094F8BC2310
:204560009A421AD0206884F8BC3301F051FD2DB9217C206804F5717201F016FE002084F8BB
:20458000BC0338BD00FB01431A4603F5FE71002382F8FD31DFE70120F3E70220F1E738B5EE
:2045A000436801F00F029A4204462AD8C2EBC20311F0800F4FEA83034FF01C0018D000FB27
:2045C000024003F13C010123214480F83D3000258D700A7094F8BC33012B14D00123206827
:2045E00084F8BC3301F03FFD84F8BC53284638BD00FB024003F5FE710023214480F8FD3163
:20460000E5E70120F3E70220F1E7006870B51204446A19B922438262002070BD836A4D1EC8
:2046200004EB134400235E1CDBB29D4205D83F3100EB810022434260EEE7403300EB8303B2
:204640005B6804EB13443346EDE7036800205962704770472DE9F341044640B30368DD077A
:2046600010D4236898075ED423681A0700F1A08023685B0700F1BE80A069002840F01F8120
:2046800000202BE0A64B9A6802F00C02042A07D09A6802F00C02082A0BD15A68510208D5F5
:2046A0009F4B1B689A03DCD56368002BD9D1012014E06268B2F5803F13D11A6842F480320C
:2046C0001A60FFF71FF8964E054633689B03C8D4FFF718F8401B6428F7D9032002B0BDE818
:2046E000F0818F4DB2F5A02F2B6807D143F480232B602B6843F480332B60E2E723F480338C
:204700002B602B6823F480232B60002AD9D1FEF7F9FF06462B689F03A3D5FEF7F3FF801BFA
:204720006428F7D9D9E77E4B9A6812F00C0F07D09A6802F00C02082A11D15B685E020ED483
:20474000774B1A68950702D5E268012AAFD11A68216922F0F80242EAC1021A6084E7E26877
:20476000704BB2B101221A60FEF7CCFF6C4D06462B68980707D52B68226923F0F80343EA52
:20478000C2032B6070E7FEF7BDFF801B0228EFD9A3E71A60FEF7B6FF614E05463368990751
:2047A0007FF562AFFEF7AEFF401B0228F6D994E762695D4B7AB101221A60FEF7A3FF584E8B
:2047C0000546736F9F073FF553AFFEF79BFF401B0228F6D981E71A60FEF794FF504E05469A
:2047E000736F98077FF544AFFEF78CFF401B0228F6D972E74A4B1A6C12F0805228D1019229
:204800001A6C42F080521A641B6C03F080530193019B0127454D2B68D9051BD5A368404D60
:20482000012B27D12B6F43F001032B67FEF76AFF3B4E054641F28838336F9B0739D5002F4B
:204840003FF41AAF364A136C23F08053136413E70027DFE72B6843F480732B60FEF752FF8B
:2048600006462B68DA05D9D4FEF74CFF801B0228F7D932E7052B04D12B6F43F004032B6774
:20488000D0E72A6F22F001022A672A6F22F004022A67002BCAD1FEF735FF41F288380646B2
:2048A0002B6F9807CBD5FEF72DFF801B4045F7D913E7FEF727FF401B4045BDD90DE7184D2A
:2048C000AB6803F00C03082B47D0194E00230228336035D1FEF716FF07462B68990129D4AB
:2048E000D4E907321343626A43EA8213E26A43EA0263A26A5208013A43EA02436B600123FE
:204900003360FEF7FFFE064D04462B689A013FF5B7AEFEF7F7FE001B0228F6D9DDE600BF2E
:204920000038024000004742800E47420070004060004742FEF7E6FEC01B0228CDD9CCE68E
:20494000FEF7E0FE04462B689B017FF599AEFEF7D9FE001B0228F6D9BFE601283FF4BEAE03
:20496000AB68E26903F4800191427FF4A0AE216A03F03F028A427FF49AAE616A47F6C0724D
:204980001A408A427FF493AEA16A03F440328A427FF48DAEE26A03F0706393423FF470AE17
:2049A00085E600BF134908B58B6803F00C03042B1CD0082B1CD14A684B68496813F48003E4
:2049C00014BF0D480D48C1F3881118BF002302F03F02A1FB0001FCF7E1F8064B5B68C3F3AD
:2049E000014301335B00B0FBF3F008BD0248FCE70248FAE70038024000127A000024F4001B
:204A00002DE9F0410D46044610B90120BDE8F081444B1A6802F00F028A4228D322689707AF
:204A20002DD4D00741D43F4B1A6802F00F02AA4266D8226851076CD4130707D53A4A21692A
:204A4000936823F4604343EAC1039360FFF7AAFF354B364A9B68C3F30313D35CD840344B89
:204A60001860344B1868FEF703FE0020CEE7CAB21A701B6803F00F038B42C6D1CEE72A4BD8
:204A800012F0040F1EBF996841F4E0519960160742BF996841F4604199602349A0688B686F
:204AA00023F0F00303438B60BBE762681E4B012A1CD11B6813F4003FA7D01B4EB36823F0FB
:204AC00003031343B360FEF71DFE41F288380746B368626803F00C03B3EB820FA3D0FEF799
:204AE00011FEC01B4045F3D903208FE7911E01291B6802D813F0007FDEE713F0020FDBE78F
:204B0000EAB21A701B6803F00F03AB427FF47DAF8FE70549E0688B6823F4E05303438B60E1
:204B20008AE700BF003C024000380240AC200208B801002098010020014B1868704700BFA3
:204B4000B8010020044B054A9B68C3F38223D35C034A1068D840704700380240BC2002085D
:204B6000B8010020044B054A9B68C3F34233D35C034A1068D840704700380240BC2002086D
:204B8000B80100200F2303600B4B9A6802F0030242609A6802F0F00282609A6802F4E052C4
:204BA000C2609B68DB0803F4E0530361034B1B6803F00F030B60704700380240003C02406F
:204BC000032303600C4BD3F88420C2F388124260D3F88420C2F30272826099681A6F01F49C
:204BE000F81102F440720A43C260D3F88C30C3F300630374704700BF0038024003689A6821
:204C0000D20410B504460AD5DB68D90507D501F0C9FE2268D368DBB263F4C073D360236881
:204C20009A6892040BD5DB689B0508D5204600F00FF82268D368DBB263F42073D360034B22
:204C40004FF400325A610123637710BD003C01407047704710B50446002836D00023836229
:204C600090F8513003F0FF021BB980F85020FFF7F0FF2168A269022384F851300B6823F05A
:204C800040030B60D4E901300343E06803432069034360690343E0690343206A0343A06A5D
:204CA000034302F4007003430B60120C636A02F004021A434A60CB6923F40063CB610020B3
:204CC0000123606584F8513010BD0120FCE70000036A23F001030362036A70B5446882690B
:204CE0000D6822F073022A438D6823F002032B430A4DA8420BD1CD6823F008032B43D1E938
:204D0000055624F44074354323F004032C43446082614A684263036270BD00BF00000140FB
:204D2000036A23F480730362036A70B54468C2690D6822F073022A438D6823F4007343EA19
:204D400005230B4DA8420DD1CD6823F4006343EA0523D1E9055624F44054354323F48063D4
:204D600044EA05144460C2614A68C263036270BD00000140036A23F480530362036A30B56D
:204D80004468C2690D6822F4E64242EA05228D6823F4005343EA0533064DA84202BF4D69BE
:204DA00024F4804444EA85144460C2614A680264036230BD00000140022380F83D30036869
:204DC0009A6802F00702062A1EBF1A6842F001021A60012380F83D300020704790F83C30C4
:204DE000012B4FF0020309D080F83D3003685961012380F83D30002380F83C30184670473B
:204E00007047704703681A69910710B504460ED5DA6892070BD56FF002021A610122027777
:204E20009B699B0777D0FCF719FE0023237723681A69500710D5DA6851070DD56FF0040293
:204E40001A61022222779B6913F4407F204668D0FCF704FE0023237723681A6912070FD5F5
:204E6000DA6810070CD56FF008021A6104222277DB69990720465AD0FCF7F0FD0023237744
:204E800023681A69D20610D5DA68D0060DD56FF010021A6108222277DB6913F4407F20462E
:204EA0004BD0FCF7DBFD0023237723681A69D10708D5DA68D20705D56FF001021A61204654
:204EC000FCF7A0FD23681A69100608D5DA68110605D56FF080021A61204600F076FA236861
:204EE0001A69520608D5DA68500605D56FF040021A612046FFF785FF23681A69910622D5F0
:204F0000DA6892061FD56FF0200220461A61BDE8104000F059BAFCF79FFD2046FFF770FF0F
:204F200083E7FCF799FD2046FFF76AFF92E7FCF793FD2046FFF764FFA0E7FCF78DFD204694
:204F4000FFF75EFFAFE710BD244A036890420ED0B0F1804F0BD0A2F57C42904207D002F5D2
:204F60008062904203D002F58062904215D14A6823F070031343194A904219D0B0F1804FFD
:204F800016D0A2F57C42904212D002F5806290420ED002F5806290420AD0114A904207D010
:204FA00002F58062904203D002F58062904203D1CA6823F4407313434A6923F08003134303
:204FC00003608B68C3620B688362044B984204BF0B69036301234361704700BF00000140B9
:204FE0000040014010B50446A0B190F83D3003F0FF021BB980F83C2001F074FE022320682F
:2050000084F83D30211DFFF79FFF012384F83D30002010BD0120FCE7036A23F010030362DF
:20502000036A70B5446882690D6822F4E64242EA05228D6823F0200343EA05130B4DA8428F
:205040000DD1CD6823F0800343EA0513D1E9055624F44064354323F0400344EA8504446068
:2050600082614A688263036270BD00BF0000014010B590F83C30012B04464FF0020010D0D4
:205080000123082A84F83C3084F83D0018D009D872B1042A10D00123002084F83D3084F876
:2050A0003C0010BD0C2AF6D12068FFF763FEF2E72068FFF70DFEEEE72068FFF7ADFFEAE7D9
:2050C0002068FFF72DFEE6E738B590F83C30012B04464FF0020010D00123082A84F83C30A4
:2050E00084F83D003FD009D8DAB1042A2AD00123002084F83D3084F83C0038BD0C2AF6D17D
:205100002068FFF737FE23680969DA6942F40062DA61DA6922F48062DA61DA6942EA0122C1
:2051200030E02068FFF7D4FD236809699A6942F008029A619A6922F004029A619A690A4373
:205140009A61D4E72068FFF767FF236809699A6942F400629A619A6922F480629A619A6929
:2051600042EA0122ECE72068FFF7DAFD23680969DA6942F00802DA61DA6922F00402DA616B
:20518000DA690A43DA61B2E770B5046A164E24F001040462B0428469056A21D0B0F1804F86
:2051A0001ED0A6F57C46B0421AD006F58066B04216D006F58066B04212D006F59A36B0429D
:2051C0000ED044F001021B01DBB222F0F0021A4301F00A0125F00A0319438261016270BDC3
:2051E00024F003042243EEE700000140F8B590F83C30012B04460E4615464FF002001AD028
:20520000012384F83D0084F83C30D1E900122068F3688DB9FFF7B8FF2368B1689A6922F06E
:205220000C029A619A690A439A610123002084F83D3084F83C00F8BD042DB66822D1056ACF
:2052400025F0100505628769D0F820E027F4407C1D034CEA022C09012CF4704CADB22EF047
:20526000A00E01F0A00145EA0C0541EA0E0185610162836923F440638361836943EA06265C
:205280008661D2E7082D056A1CD125F480750562C769056A27F0030717431B010902DBB29A
:2052A00027F0F00725F4206501F420611F432943C7610162C36923F00C03C361C3691E4374
:2052C000C661B2E725F480550562C569076A25F4407545EA02251B03090325F470459BB2B1
:2052E00027F4204701F420412B433943C3610162C36923F44063C361C36943EA0626DFE710
:20530000036A01F01F0110B501248C4023EA04030362036A8A401A43026210BD10B504460C
:2053200001220068FFF7ECFF2368094A934202BF5A6C42F400425A649A6802F00702062A64
:205340001EBF1A6842F001021A60002010BD00BF00000140FFF7E2BF10B504460122006821
:20536000FFF7CEFF23689A6802F00702062A1EBF1A6842F001021A60002010BD036A01F059
:205380001F0110B504248C4023EA04030362036A8A401A43026210BD10B504460422006859
:2053A000FFF7ECFF23685A6C42F400425A649A6802F00702062A1EBF1A6842F001021A604A
:2053C000002010BDFFF7E8BF704770470368DA6822F49072DA605A6922F001025A61202300
:2053E00080F83A307047000038B50368C1681A69044622F440520A431A612569A268D9687D
:20540000C0692A43656921F416412A4321F00C0102430A43DA605A69A16922F440720A4383
:20542000B0F5004F5A61254A28D1934203D002F5806293421FD1FFF795FB626800239218F2
:205440004FF019015B41A0FB0101FBF7A7FB6421B0FBF1F501FB1503DB003233B3FBF1F32A
:2054600003F007025B00216802EB051203F4F87313448B6038BDFFF765FBDEE7934202D0ED
:205480000F4A934217D1FFF76DFB636819219A00A0FB01019B0FFBF781FB6422B0FBF2F130
:2054A00002FB110324681B013233B3FBF2F303EB0113A360DEE7FFF745FBE6E7001001401D
:2054C00000140140704710B5044640B390F8393003F0FF021BB980F83820FFF7F3FF2268C3
:2054E000242384F83930D36823F40053D3602046FFF77AFF23681A6922F490421A615A699F
:2055000022F02A025A61DA6842F40052DA6000202023E06384F8393084F83A3010BD01202F
:20552000FCE710B5044660B390F8393003F0FF021BB980F83820FFF7C5FF2268242384F8D6
:205540003930D36823F40053D3602046FFF74CFF23681A6922F490421A615A6922F02202F9
:205560005A615A6942F008025A61DA6842F40052DA6000202023E06384F8393084F83A3041
:2055800010BD0120FCE790F83930202B18D1A9B1A2B190F83830012B12D0C28401628284BB
:2055A000016800232122C36380F8383080F83920CA6842F08002CA60184670470120704748
:2055C0000220704790F83A30202B20D1E9B1E2B190F83830012B1AD0C285828500232222DC
:2055E000C36380F83A20026880F838308162D16841F48071D160516941F001015161D1681E
:2056000041F02001D16018467047012070470220704710B590F83A30222B33D181680469E3
:20562000836A0268B1F5805F23D15268ECB9C2F3080223F8022B8362C48D013CA4B2C48522
:205640008CB90368DA6822F02002DA60DA6822F48072DA605A6922F001025A61202380F818
:205660003A3001F0F3FC00200DE0D2B223F8012BE1E7591C526881620CB91A70DCE702F02A
:205680007F02FAE7022010BD03681A68D96870B516075D69044607D196065CD58D065AD5D2
:2056A000BDE87040FFF7B5BF05F0010001F49075054350D0D60705D5CD0542BFE36B43F0C8
:2056C0000103E363530704D518B1E36B43F00203E363960704D518B1E36B43F00403E363AB
:2056E000150707D501F0200303431EBFE36B43F00803E363E36B4BB3900604D5890602D588
:205700002046FFF786FF23685B69E56B03F0400305F008051D43204619D0FFF757FE23684C
:205720005A6952060FD55A69606B22F040025A6148B1264B0365FEF7B1FA38B1606BBDE802
:205740007040036D1847204601F096FC70BD01F093FCE563FAE7160628D50D0626D594F858
:205760003920212AF2D1A168226AB1F5805F18D11188C1F308015960216981B90232226234
:20578000E28C013A92B2E284002ADFD1DA6822F08002DA60DA6842F04002DA60D6E70132EC
:2057A000EDE7511C216212785A60E9E75006CDD54A06CBD5DA6822F04002DA60202384F89A
:2057C0003930204601F045FCC0E700BFD157000808B5806B0023C385C38401F04DFC08BDD9
:2057E00090F83830012B11D00268242380F83930D36823F00C0343F00803D360202380F891
:205800003930002380F83830184670470220704790F83830012B11D00268242380F839309F
:20582000D36823F00C0343F00403D360202380F83930002380F83830184670470220704789
:2058400090F8392090F83A00104370470A4B013B0FD00269002AFADA0369074A43F00103CE
:205860000361013A05D0036913F00103F9D1184670470320704700BF410D030084B038B557
:2058800005AD85E80E000A9B012B044625D1836B23F480338363C36823F4840323F040030D
:2058A000C360C36823F44013C360119B012B02BFC36843F48013C360FFF7C8FF089B012BD0
:2058C00007D1A36843F00603A360A36843F02003A360BDE8384004B07047C36843F0400319
:2058E000C360FFF7B3FF0E9B23B9A36B43F48033A363E3E7A36B23F48033F9E7022A4AD191
:20590000274B284A0B44934239D9274B274A0B44934236D9264AA1F57403A3F5105393420A
:2059200031D9244AA1F18373A3F5E74393422CD3214B224A0B44934229D9214B214A0B44AD
:20594000934226D3204B214A0B44934223D3204AA1F1B773A3F5585393421ED31D4B1E4A8A
:205960000B44934234BF07230623C26822F47052C260C26842EA8323C360002070470F2371
:20598000F3E70E23F1E70D23EFE70C23EDE70B23EBE70A23E9E70923E7E70823E5E700BF6E
:2059A000405327FFFF340C00401E1BFF3F420F007F4F120020D6130060B6E5FE5FE31600AD
:2059C00000D3CEFE40771B00C05BB3FEC091210020753800E05459FEE09C4100836843F0E5
:2059E0000103836000207047836823F0010383600020704708B5C368012923F0C043C360E2
:205A000008D1C36843F00053C3603220FDF780FE002008BD19B9C36843F08043F4E7012041
:205A2000F7E70000890141F02001064A0161013A05D0036913F02003F9D118467047032056
:205A4000704700BF410D03001023064A0361013A05D0036913F01003F9D118467047032004
:205A6000704700BF410D0300D0F800381943C0F8001800207047000084B02DE9F047044691
:205A800009A880E80E0000230C9E139D0F46194603F1400204EB820201330F2B5160F7D11E
:205AA000002D7BD1A36B43F40013A363A36B23F40023A363A36B23F48023A3630023C4F814
:205AC000003ED4F80038C4F800380E9B012B04F500686DD10B99002968D12046FFF7C4FFF7
:205AE00010212046FFF79EFF01462046FFF7ACFF0843C0B200230038C8F8103018BF01201E
:205B0000C8F8143004F51062C8F81C3019464FF0904C4FF0006E4FF67F39BB424AD10022AC
:205B200004F5306311464FF0904C4FF0006E4FF67F39BA4251D1D8F81030012E23F4807356
:205B4000C8F810300AD12E4BC8F83030D8F8303043F4803343F00303C8F830300023A36137
:205B60006FF0804363611EB9A36943F01003A361A269244B1343A3610F9B1BB1A36943F089
:205B80000803A361012D01BFA36943F0804343F00403A361BDE8F04704B07047236823F4DF
:205BA00000132360A36B43F4002386E7194694E7032192E7D2F800A0BAF1000F0BDA3BB906
:205BC000C2F800E011610133C2F808902032A4E7C2F800C0F6E71160F4E7D3F800A0BAF19D
:205BE000000F0BDA3AB9C3F800E019610132C3F8089020339DE7C3F800C0F6E71960F4E7A0
:205C00000001800000383C80D0F8083813F0060004D013F0020F14BF02200F20704730B556
:205C20000D78012405F00F039C404B7800F50062012B00EB4510D36918D11C43D461D0F8D0
:205C400000391A0410D48A68D0F80049C2F30A03CA78234343EA824343EA855343F080539F
:205C600043F40043C0F80039002030BD43EA0444D461D0F8003B1B04F6D48B68D0F8002B30
:205C8000C3F30A031343CA7843EA824343F0805343F40043C0F8003BE6E7000030B50C780E
:205CA000497800F5006204F00F050123012903FA05F3D16B00EB44100ED121EA0301D163E4
:205CC000D16921EA0303D361D0F80029094B1340C0F80039002030BD21EA0341D163D169F2
:205CE00021EA0343D361D0F8002B034B1340C0F8003BEFE7007833EC0078F3EF4B78DFF837
:205D0000ECC0F0B50E784D69374F012B00EB461446D104F51063BDB91D692F401F611D690B
:205D200045F400251D611D6905EA0C05012A1D6123D10A6902B15A61D4F8003943F0044304
:205D4000C4F800390020F0BDD3F810E00EEA0C0CC3F810C0D3F810C00CEA07071F618F6815
:205D6000AF421D6938BF4F6145F400251D614D691F69C5F312053D43D8E7D4F8003943F0A5
:205D80000443C4F800394B69002BDBD0D0F8342806F00F060123B3401343C0F83438D1E7C5
:205DA000D4F8100B00EA0C00C4F8100BD4F8100B384004F530631861886805B148611D69F6
:205DC00045F400251D611D69C0F312002843012A186102D1CA6802B15A61D4F8003B43F0E0
:205DE0000443C4F8003BADE7FFFF07E00000F8FF10B59DF8084044B9033301329B0800EB5F
:205E0000023001EB83038B4201D1002010BD51F8042B0260F7E700002DE9F3414D780F7804
:205E20004B69CE78DFF8C0C1DFF8C0E1012D00EB471440F08E8004F51065D5F810806BBBF5
:205E400008EA0C0CC5F810C0D5F810C04CF4002CC5F810C0D5F810C00CEA0E0EC5F810E0B9
:205E6000012A4ED10B6903B16B61012E0CD1D0F8083813F4807FD4F800390CBF43F0005374
:205E800043F08053C4F80039D4F8003943F00443C4F80039002002B0BDE8F08108EA0E0E9D
:205EA000C5F810E0D5F810E00EEA0C0CD1F808E0C5F810C00EEB030C0CF1FF3CBCFBFEFE37
:205EC000DFF82CC1D5F810800CEACE4C4CEA080CC5F810C0D5F810E0C3F3120C4CEA0E0CD9
:205EE000012EC5F810C0BBD1D5F810C02CF0C04CC5F810C0D5F810C04CF0005CC5F810C046
:205F0000AEE7D4F80059012E45F00445C4F800590BD0002BBED0D0F8343807F00F0201270D
:205F200097401F43C0F83478B4E7D0F8085815F4807FD4F800590CBF45F0005545F0805575
:205F4000C4F800590092C9689BB23A46FFF750FFA0E7D4F8105B05EA0E05C4F8105BD4F8A4
:205F6000105B05EA0C0504F530673D618D681BBB3B69C5F312051D433D613B6943F400234E
:205F8000012A3B6102D1CB6803B17B61012E0CD1D0F8083813F4807FD4F8003B0CBF43F085
:205FA000005343F08053C4F8003BD4F8003B43F00443C4F8003B6DE7DFF834C0D7F810E03B
:205FC0002B44013BB3FBF5F30CEAC34C4CEA0E0CC7F810C09BB2D7F810C06B43C3F3120337
:205FE00043EA0C03CCE700BFFFFF07E00000F8FF0000F81F0332920801EB820200F58050FC
:020000040800F2
:20600000914201D108467047036841F8043BF7E74A780B78012A00EB431012D1D0F8002993
:20602000002A06DB2BB1D0F8003923F08043C0F80039D0F8003943F40013C0F80039002055
:206040007047D0F8002B002A06DB2BB1D0F8003B23F08043C0F8003BD0F8003B43F4001396
:20606000C0F8003BEBE70B784A7800EB4310CB78012AA3F10203DBB20FD1D0F80029012B47
:2060800022F40012C0F8002905D8D0F8003943F08053C0F8003900207047D0F8002B22F442
:2060A0000012012BC0F8002B9EBFD0F8003B43F08053C0F8003BEEE7D0F8003823F4FE6319
:2060C000C0F80038D0F80038090101F4FE611943C0F800180020704708B5D0F8043823F09B
:2060E0000203C0F804380320FDF712FB002008BD08B5D0F8043843F00203C0F8043803208E
:20610000FDF706FB002008BD4269806910407047D0F8183800F50060C0691840000C704759
:20612000D0F8183800F50060C069184080B2704700EB411100F50060D1F8082B4069104001
:20614000704710B5D0F81048D0F8343800EB411001F00F01CB4000F51060DB018068DBB271
:206160002343184010BD406900F001007047D0F8003923F4FF6323F00703C0F80039D0F8F3
:20618000082802F00602042A02BFD0F8002942F00302C0F80029D0F8042842F4807200F5CC
:2061A000006300205A60704730B5056C104CA54200F5306303D9D0F8004B002C16DB00249A
:2061C0001C611C6944F400241C611C6944F018041C611C69012944F0C0441C6101BF5A61B3
:2061E000D0F8003B43F08023C0F8003B002030BD0A30544F86B00023052853D8DFE800F081
:2062000003111E2B38450093274B28481A6B42F001021A631B6B03F001030093009B06B097
:2062200070470193204B22481A6B42F002021A631B6B03F002030193019BF0E702931A4B87
:206240001C481A6B42F004021A631B6B03F004030293029BE3E70393134B17481A6B42F01A
:2062600008021A631B6B03F008030393039BD6E704930D4B11481A6B42F010021A631B6B0E
:2062800003F010030493049BC9E70593064B0C481A6B42F080021A631B6B03F0800305938B
:2062A000059BBCE70020BAE700380240000002400004024000080240000C024000100240EE
:2062C000001C024008B5064900F05EFBC0F3C430831E022B9ABF80000438002008BD00BFDD
:2062E000D017020802680D4B9A4282B00BD1002301930B4B5A6C42F480725A645B6C03F48A
:2063000080730193019B074BB3F90000C30503D4054902B000F0F4BA02B070470020014055
:2063200000380240B401002004170208084B01685A6A42F480725A625A6A22F480725A62FD
:20634000044A914202BF5A6C22F480725A6470470038024000200140F0B599B00746482298
:206360000D4606A8002118F08FFC0021102202A818F08AFC0024F905ADF80640BBB20DD581
:20638000B7F5827F0ADA414A06926FF480721344022B01D8A7F1F104072610E03C493846EA
:2063A00000F0CEFA3A490690384600F0EDFAC0F3C434631E112B4FF0010688BF0024069BFD
:2063C00013B9002019B0F0BD4FF48033082D079354D00A2D55D0062D56D14FF040732D4A53
:2063E00008930023CDE90933CDE910238DF830308DF838300F938DF84830169314938DF8BE
:206400005430254B012506A80B950D951F80FDF793F90028D5D1CDE9046002A906A8CDE95C
:206420000245FDF717FB0028CBD106A8FDF744FA0028C6D10A2106A8FDF7B9FA0028C0D173
:2064400006A8FDF799FB830505D506A8FDF7FEFA80B2ADF8060006A8FDF78EFA0028B0D15A
:2064600006A8FDF70FFA0028ABD10C4A536823F440035360BDF8060080B2A3E74FF0007386
:20648000ADE74FF08073AAE70023A8E700200140041702080100000FB40100200023014024
:2064A0002DE9F34789462549254C98461746064600F046FAFBF716F854F8203005467BB90C
:2064C0001E49304600F03CFA0190A820FBF7DBFC01998246FBF75CF854F82530C3F800A0F3
:2064E00054F8253015491C68304600F04DFAC0F3C43529462046FAF7B3FF0528824605D07E
:206500003346052229462046FAF700FF022249462046FBF7E1F843463A4629462046FBF762
:2065200053F9BAF1050F05D0204602B0BDE8F047FAF7C6BE02B0BDE8F08700BFD017020894
:20654000BC06002073B51549154C064600F0F8F9FAF7C8FF54F82030054673B90F493046AC
:2065600000F0EEF90190A820FBF78DFC01990646FBF70EF854F825301E6054F825301C684E
:206580004CB12046FAF7E4FFA821204602B0BDE87040FBF77ABC02B070BD00BFD0170208D7
:2065A000BC06002037B50D4D2B68FDF7ABF86C68AB680134E31A01932B68DB0304D5FDF79E
:2065C000A1F8AB68E31A0193019B4FF47A725343B3FBF4F302FB003003B030BD10E000E0EB
:2065E000FDF790B8704708B5FDF780F8FDF752FBFFF7F8FF08BD00000B4BDA68D2015EBF04
:20660000DA6842F08072DA60084B00225A601A6842F001021A6000BF00BF00BF5868B0FAD3
:2066200080F04009704700BFF0ED00E0001000E008B5FFF7E1FFFDF73FF8FAF7D3FBBDE85C
:206640000840FCF7C7BE00000023012803F1010202D040081346F8E71421DBB24B43044A47
:20666000181D1044816811B11A44136918477047140700200120FDF723BB0220FDF720BBD7
:206680000420FDF71DBB0820FDF71ABB1020FDF717BB38B505242025A8B2FDF711FB013C31
:2066A0004FEA4505F8D138BD38B506244FF48065A8B2FDF705FB013C4FEA4505F8D138BD8E
:2066C000204B07211975082183F82810092183F83C100A21062283F8501017211A7083F861
:2066E0006410002283F8781083F88C1083F8A01083F8B4102821DA601A625A639A64DA6587
:206700001A67C3F88420C3F89820C3F8AC20C3F8C02083F8C810C3F8D42083F8DC10C3F8E0
:20672000E82083F8F010C3F8FC2083F80411C3F8102183F81811C3F8242183F82C11C3F86C
:20674000382170471407002038B5054CA4F5A075143C201DFAF7E6FCAC42F9D138BD00BF36
:206760005408002030B5436891FAA1F4B4FA84F50124AC4023EA040391FAA1F1B1FA81F167
:206780008A401343436030BD30B5C46891FAA1F3B3FA83F303255B0005FA03F324EA03036A
:2067A00091FAA1F1B1FA81F149008A401343C36030BD431C04D00C3131F90C3C5A1C01D1FC
:2067C00000207047834201F10C01F5D10120704700F00F02484B2DE9F041C0F303141FFAC2
:2067E00080F8013053F822500E4601F0070703D14248482100F0E8F82046FFF7FBFC83680B
:20680000044695FAA5F2B2FA82F20321520001FA02F223EA020195FAA5F3B3FA83F35A00CF
:20682000032393400B438360032F35D8DFE807F01D1D021D18F0080FC6F3062217D0406A47
:206840002B0A93FAA3F1B1FA81F14FF00F0C89000CFA01F120EA010193FAA3F3B3FA83F398
:206860009B0002FA03F30B4363623B4619E0036A95FAA5F1B1FA81F10F20890000FA01F1AB
:2068800023EA010195FAA5F3B3FA83F39B0002FA03F30B432362E8E718488D2100F094F8E6
:2068A0000023216895FAA5F2B2FA82F20320520000FA02F221EA020195FAA5F2B2FA82F22F
:2068C00052009340013F0B43012F236007D816F0080218BF012229462046FFF743FFC6F3A3
:2068E0000112012A02D0022A18BF002229462046BDE8F041FFF748BF6C200208ED1F02080F
:20690000431C06D17047834202D18968FFF760BF0C31B1F900305A1CF5D10248B92100F085
