:020000040800F2
:10000000102D002035020008C50A0008810A0008EA
:10001000C10A000841060008111500080000000090
:10002000000000000000000000000000C1130008F4
:100030004506000800000000DD0A0008AD140008B5
:100040004F0200084F0200084F0200084F0200084C
:100050004F0200084F0200084F0200084F0200083C
:100060004F0200084F0200084F0200084F0200082C
:100070004F0200084F0200084F0200084F0200081C
:100080004F0200084F0200084F0200084F0200080C
:100090004F0200084F0200084F0200084F020008FC
:1000A0004F0200084F0200084F0200084F020008EC
:1000B0004F0200084F0200084F0200084F020008DC
:1000C0004F0200084F0200084F0200084F020008CC
:1000D0004F0200084F0200084F0200084F020008BC
:1000E0004F0200084F0200084F0200084F020008AC
:1000F0004F0200084F0200084F0200084F0200089C
:100100004F0200084F0200084F0200084F0200088B
:100110004F0200084F0200084F0200084F0200087B
:100120004F0200084F0200084F0200084F0200086B
:1001300000F002F800F05EF80AA090E8000C82449B
:100140008344AAF10107DA4501D100F053F8AFF278
:10015000090EBAE80F0013F0010F18BFFB1A43F0A5
:10016000010318470C3E00002C3E00000A444FF0EB
:10017000000C10F8013B13F0070408BF10F8014B06
:100180001D1108BF10F8015B641E05D010F8016B4B
:10019000641E01F8016BF9D113F0080F1EBF10F8AF
:1001A000014BAD1C0C1B09D16D1E58BF01F801CBD2
:1001B000FAD505E014F8016B01F8016B6D1EF9D555
:1001C0009142D6D37047000000230024002500266A
:1001D000103A28BF78C1FBD8520728BF30C148BFAA
:1001E0000B6070471FB59DE8030000F003F91FBDC9
:1001F00010B510BD00F0A3F91146FFF7F3FF02F0B0
:10020000D1FF00F0C1F903B4FFF7F2FF03BC00F027
:10021000F1F90000EFF30980704780F30988704717
:10022000EFF30880704780F30888704740BA704742
:10023000C0BA70470948804709480047FEE7FEE713
:10024000FEE7FEE7FEE7FEE7FEE7FEE7FEE7FEE786
:1002500004480549054A064B70470000B1140008E0
:100260003101000810090020102D00201029002065
:100270001029002070B5064600F0A0F8056806F1C8
:100280000B0020F00704B4429CBF002070BD2B4639
:100290006A68BAB11068A04210D304F1080188421C
:1002A0003CBF5068586007D351681019416011680D
:1002B000091B016058601460101D70BD1346526820
:1002C000002AE7D12146284600F080F80028DED138
:1002D00070BD70B50446051F00F070F80068002C72
:1002E00014BF446870BD002C18BFAC423CBF204610
:1002F0006468F8D301680A18AA4218BF456003D1A0
:100300002A6805461144016028684119A1421CBFB2
:100310006C6070BD6168696021680844286070BDC8
:1003200010B5431C02E010F8011B71B18107FAD12E
:100330004FF0013202C88C1A8C4314EAC211F9D072
:10034000C01A0A0603D0C01E10BDC01A10BD0A0490
:1003500001D0801E10BD0902FCD0401E10BD10B59A
:10036000044610F0030F08BF11F0030F40F0158092
:100370004FF0013E121FC0F20E8051F8043BA3EB78
:100380000E0C2CEA030C1CEACE1C08BF40F8043B00
:10039000F0D0A1F1040102F10402521E08DB11F8B1
:1003A000013B002B00F8013BF7D1114600F058F853
:1003B000204610BD704770477047000000487047E6
:1003C000B4080020704770477047704738B504463E
:1003D0000A4600206946AFF30080002808BF38BDF8
:1003E00002460099204600F061F8012038BD012046
:1003F00000F076B8F8B5AFF30080054600200C4653
:10040000102000BF0646A819A0420DD93246694601
:100410000020AFF30080070008BF00F061F80098EB
:10042000A04218BF0546C419FFF7C8FF056007467C
:10043000F01D20F007004619284600F00AF8B442E3
:1004400008BFF8BDA21B31463868BDE8F84000F08F
:100450002DB800210160C0E90110704710207047DD
:100460004FF000020429C0F0128010F0030C00F0DD
:100470004080CCF1040CBCF1020F18BF00F8012B36
:10048000A8BF20F8022BA1EB0C0100F032B85FEA04
:10049000C17C24BF00F8012B00F8012B48BF00F8F5
:1004A000012B704700487047AC08002003464068A5
:1004B0008C46002818BF88423CBF03464068F8D3EA
:1004C00018681844884207D00CF1030020F0070098
:1004D000001D411A521A0146081D0A60FFF7F9BEB5
:1004E00010B500F05FF8BDE8104000F056B84FF0CE
:1004F000000200B5134694469646203922BFA0E874
:100500000C50A0E80C50B1F12001BFF4F7AF09077F
:1005100028BFA0E80C5048BF0CC05DF804EB890070
:1005200028BF40F8042B08BF704748BF20F8022BB3
:1005300011F0804F18BF00F8012B704770477546C7
:10054000FFF7B0FFAE4605006946534620F00700AE
:10055000854618B020B5FFF77BFEBDE820404FF080
:1005600000064FF000074FF000084FF0000B21F09D
:100570000701AC46ACE8C009ACE8C009ACE8C0096A
:10058000ACE8C0098D46704710B50446AFF3008053
:100590002046BDE81040FFF736BE002801D000F02D
:1005A00029B8704710B5012805D0002103A000F03C
:1005B00027F8012010BD09A1F8E700005349475270
:1005C000544D454D3A204F7574206F662068656123
:1005D00070206D656D6F7279000000003A204865EB
:1005E0006170206D656D6F727920636F72727570C6
:1005F0007465640001491820ABBEFEE726000200C6
:1006000070B505460C460A2000E06D1C00F011F89C
:1006100035B128780028F8D102E0641C00F009F810
:1006200014B120780028F8D1BDE870400A20AFF35B
:10063000008008B569468DF800000320ABBE08BDF8
:1006400000BFFEE7704700000149C8607047000026
:100650000020024030B5044604254FF4302000F05D
:1006600085F80546042D17D10C48006940F00200BA
:100670000A49086108464461006940F04000086189
:100680004FF4302000F072F805460448006941F646
:10069000FD71084001490861284630BD0020024034
:1006A00004200B49C96801F0010109B101200EE0E5
:1006B0000749C96801F0040109B1022007E00449B3
:1006C000C96801F0100109B1032000E0042070475F
:1006D000002002400348006940F0800001490861A1
:1006E000704700000020024078B506460C460425FD
:1006F00000200090E80200F039F80546042D24D1CE
:100700001348006940F00100114908613480E80293
:1007100000F02CF80546042D10D1B01C0090200CE0
:1007200000990880E80200F021F8054608480069B1
:1007300041F6FE7108400649086106E00448006978
:1007400041F6FE71084002490861284678BD000064
:10075000002002400248034948600348486070474F
:100760002301674500200240AB89EFCD00B502466A
:100770000423FFF795FF034603E0FFF791FF0346CD
:10078000521E012B01D1002AF7D102B905231846C8
:1007900000BD000010B504462948844208D101215B
:1007A000042000F0BDF90021042000F0B9F946E072
:1007B0002448844208D10121082000F0B1F9002129
:1007C000082000F0ADF93AE01F48844208D1012129
:1007D000102000F0A5F90021102000F0A1F92EE072
:1007E0001A48844208D10121202000F099F9002103
:1007F000202000F095F922E01548844208D101211B
:10080000402000F08DF90021402000F089F916E029
:100810001048844208D10121802000F081F9002194
:10082000802000F07DF90AE00B48844207D10121C5
:10083000801500F075F90021A01500F071F910BDC8
:1008400000080140000C014000100140001401406C
:1008500000180140001C01400020014010B5014675
:100860000A0ACBB2054850F82200806801249C4057
:10087000204008B1012010BD0020FCE7DC3A000850
:100880002DE9F04102460025002600200023002427
:10089000002791F803C00CF00F0591F803C00CF08D
:1008A000100CBCF1000F03D091F802C04CEA050512
:1008B00091F800C0BCF1000F31D0146800202BE08B
:1008C0004FF0010C0CFA00F3B1F800C00CEA03067B
:1008D0009E4220D183004FF00F0C0CFA03F7BC436B
:1008E00005FA03FC4CEA040491F803C0BCF1280F9C
:1008F00006D14FF0010C0CFA00FCC2F814C00AE05B
:1009000091F803C0BCF1480F05D14FF0010C0CFA6F
:1009100000FCC2F810C0401C0828D1D31460B1F804
:1009200000C0BCF1FF0F34DD546800202EE000F160
:10093000080C4FF0010808FA0CF3B1F800C00CEAFB
:1009400003069E4221D183004FF00F0C0CFA03F7EF
:10095000BC4305FA03FC4CEA040491F803C0BCF163
:10096000280F05D100F1080C08FA0CF8C2F8148021
:1009700091F803C0BCF1480F07D100F1080C4FF00B
:10098000010808FA0CF8C2F81080401C0828CED3E1
:100990005460BDE8F0810000F0B504460B46200A23
:1009A000E1B22A4DAD69861C0127B7403D43274E71
:1009B000B5610C2B09D101F110050126AE40244D83
:1009C00055F820502E61082307E0082B05D101259A
:1009D0008D401F4E56F82060356107291ADC1C4DEA
:1009E00055F820502D684E07F70E0F26BE40B54330
:1009F000174E56F820603560154D55F820502D687B
:100A00004E07F60E03FA06F63543114E56F82060EF
:100A1000356019E00E4D55F820506D684E07F70E01
:100A20000F26BE40B5430A4E56F820607560084D4B
:100A300055F820506D684E07F60E03FA06F635435A
:100A4000034E56F820607560F0BD000000100240B3
:100A5000DC3A0008416170470161704730B5020A15
:100A6000C3B209B11C4601E003F110040125A54001
:100A7000024C54F82240256130BD0000DC3A0008E9
:100A800000BFFEE710B5044620210B48FFF7E2FF48
:100A90004FF400410948FFF7DDFF012001F00EF996
:100AA0002146002000F008FC012001F007F9202178
:100AB0000148FFF7D1FF10BD000C014000080140C4
:100AC00000BFFEE77047000002490143024A11607F
:100AD000704700000000FA050CED00E070470000D0
:100AE00029B1064A12690243044B1A6104E0034A21
:100AF00012698243014B1A617047000000100240E6
:100B000029B1064A92690243044B9A6104E0034A00
:100B100092698243014B9A617047000000100240C5
:100B200029B1064AD2680243044BDA6004E0034A62
:100B3000D2688243014BDA60704700000010024027
:100B400000BF011EA0F10100FBD1704708B50121D3
:100B50000820FFF7D5FF0120ADF8000010208DF828
:100B6000030003208DF8020069460648FFF788FE5F
:100B700001210448FFF770FF4FF47F0000F004F8F4
:100B800008BD0000000C014070B505460026172482
:100B900022E025FA04F000F0010676B101211048A8
:100BA000FFF75AFF0320FFF7CBFF01210C48FFF7A7
:100BB00051FF0120FFF7C4FF0DE001210848FFF7B6
:100BC0004BFF0120FFF7BCFF01210548FFF742FF63
:100BD0000320FFF7B5FF641E002CDADA70BD0000B9
:100BE000000C014010B540F20320FFF737FE08B9B2
:100BF000012010BD0020FCE710B50022082140F2C2
:100C00000320FFF7C9FE10BD10B50824012000F035
:100C10004DF902E0FF2000F05DF9201EA4F1010172
:100C2000CCB2F7D110BD10B5002204210846FFF761
:100C3000B3FE002000F04AFA10BD70B505464FF62D
:100C4000FF7401E0601E84B2FF2000F043F9A84267
:100C500001D0002CF6D10CB9FF2070BD0020FCE7BC
:100C6000F8B5FFF7C9FFFFF7BDFF08B9AA20F8BD27
:100C700000F023F900F0B3F9002504E0FF2000F0B4
:100C800029F9681C85B20A2DF8DB142600BF9522CD
:100C90000021084600F033F90446012C04D0301E30
:100CA000A6F101018EB2F2D1002054490870012C46
:100CB00075D192E087224FF4D571082000F01FF91A
:100CC000012847D1002506E0FF2000F003F90DF8C8
:100CD0000500681C85B2042DF6DB9DF80200012892
:100CE0007BD19DF80300AA2877D14FF6FE7600BF8E
:100CF00001220021372000F002F90122910729206A
:100D000000F0FDF8044624B1301EA6F101018EB2B8
:100D1000EED1002E61D0012200213A2000F0EFF840
:100D200000285AD1002506E0FF2000F0D3F80DF886
:100D30000500681C85B2042DF6DB9DF8000000F06C
:100D4000400018B106202D49087002E004202B490C
:100D5000087043E001220021372000F0D0F8012282
:100D60000021292000F0CBF80446012C18DC0220D9
:100D7000224908704FF6FE7600BF0122002137207D
:100D800000F0BDF801220021292000F0B8F8044647
:100D9000C4B1301EA6F101018EB2EED112E01EE008
:100DA0000120164908704FF6FE7600BF012200218F
:100DB000104600F0A4F8044624B1301EA6F101014B
:100DC0008EB2F3D12EB101225102102000F097F81B
:100DD00010B100200949087000E06BE700BFFFF781
:100DE00013FF00F0F6F80548007808B100203EE750
:100DF0000CB120463BE7AA2039E700000C00002098
:100E00002DE9F04106460F46154619480078062898
:100E100000D07F02012D0CD101223946112000F0B3
:100E20006EF80446FCB96902304600F023F8044627
:100E300019E001223946122000F061F8044600BF93
:100E40004FF40071304600F015F8044606F50076C0
:100E5000681EC0B2051E01D0002CF1D00122002175
:100E60000C2000F04CF8FFF7CFFE2046BDE8F081E3
:100E70000C00002070B504460D46FE20FFF7DDFE95
:100E800008B1012070BD04E0FF2000F023F82070BD
:100E9000641C281EA5F101018DB2F5D1FF2000F0E0
:100EA00019F8FF2000F016F80020EBE710B5044613
:100EB00021460420FFF7D2FD10BD10B5002203210A
:100EC0000420FFF769FD002000F0F6F80120FFF78D
:100ED000EDFF10BD10B504462146002000F0ECF9EE
:100EE000C0B210BD10B50020FFF7E0FF00F07DF8A4
:100EF00008B9002010BDFFF787FE0120FAE72DE9B1
:100F0000F04105460C4617464FF00008FFF77CFEFF
:100F1000FFF7E8FF10B1FF20BDE8F08100F065F8B1
:100F200008B1FF20F8E745F04000FFF7D3FF200E9F
:100F3000FFF7D0FFC4F30740FFF7CCFFC4F307204F
:100F4000FFF7C8FFE0B2FFF7C5FF3846FFF7C2FF63
:100F50000C2D02D1FF20FFF7BDFF4FF01F0800BF8F
:100F6000FF20FFF7B7FF064606F0800030B1B8F16A
:100F70000000A8F1010101F0FF08F1D13046CBE7F4
:100F800070B506460D4600F030F808B1012070BD7E
:100F90002846FFF79FFFFD2D19D0002404E0305DA7
:100FA000FFF798FF601C84B2B4F5007FF7DBFF20E9
:100FB000FFF790FFFF20FFF78DFFFF20FFF78AFF6D
:100FC000044604F01F00052801D00220DFE70020BE
:100FD000DDE710B50021084600F020F910BD10B57E
:100FE0000721002000F01AF910BD10B5002406E01A
:100FF000FF20FFF76FFFFF2801D1002010BD204622
:10100000641C4FF6FF718842F2D30120F6E700001E
:101010002DE9F04106460F4615462048007806287F
:1010200000D07F02012D0CD1012239461820FFF794
:1010300066FF04466CBBFE213046FFF7A1FF044665
:1010400027E016480078012809D001220021372026
:10105000FFF755FF012229461720FFF750FF012215
:1010600039461920FFF74BFF044694B900BFFC2115
:101070003046FFF785FF044606F50076681EC0B2CD
:10108000051E01D0002CF2D0FD210020FFF778FFD3
:101090000446FFF7B9FD2046BDE8F0810C000020B2
:1010A00021B1028842F04002028004E002884FF63B
:1010B000BF731A400280704710B50446204600F006
:1010C00017F80721204600F0A9F810BD10B5044616
:1010D000054951F82400FFF75DFB044951F824004D
:1010E00000F044F810BD000000000020F83A0008AD
:1010F00038B50446184951F824000121FFF700FDD6
:10110000164830F81400164931F8141008431549F0
:1011100031F814100843ADF8000018208DF80300D2
:1011200003208DF80200104951F824006946FFF7AA
:10113000A7FB0A4A32F81420094B33F814301A433B
:10114000084B33F8143042EA0301074A52F82400EE
:10115000FFF782FC38BD0000043B0008103B00088C
:10116000163B00081C3B00080000002010B5044698
:101170001148844208D101218014FFF7D1FC0021DD
:10118000A014FFF7CDFC16E00C48844208D10121E1
:101190000014FFF7A5FC00212014FFF7A1FC0AE0D2
:1011A0000748844207D10121C013FFF799FC0021B1
:1011B000E013FFF795FC10BD0030014000380040FF
:1011C000003C00400246002013890B400BB1012077
:1011D00000E0002070470146888970478181704790
:1011E00010B50022028802F441520B884C88234338
:1011F0008C882343CC8823430C8923434C89234385
:101200008C892343CC8923431A430280838B4FF27A
:10121000FF74234083830B8A038210BD70B586B0B0
:1012200005460E46082E15D2DFE806F012100E0C09
:101230000A08060438240FE030240DE028240BE0CF
:10124000202409E0182407E0102405E0082403E026
:10125000002401E0382400BF00BF0020ADF80400E6
:101260004FF48270ADF806000020ADF808000220AF
:10127000ADF80A000120ADF80C004002ADF80E00F8
:10128000ADF810400020ADF812000720ADF81400B2
:10129000084951F8250001A9FFF7A2FF054951F8B7
:1012A00025000121FFF7FCFEFF21002000F004F8DB
:1012B00006B070BDF83A00082DE9F04104460F462B
:1012C000002506E0681CC5B2C82D02DD0020BDE87F
:1012D000F081134951F824000221FFF773FF002821
:1012E000F0D00F4951F824003946FFF777FF002569
:1012F00005E0681CC5B2C82D01DD0020E7E70849FC
:1013000051F824000121FFF75DFF0028F1D00449C6
:1013100051F82400FFF75FFFC6B23046D7E7000060
:10132000F83A000870B504460D462046FFF7E0FE87
:1013300029462046FFF772FF70BD014608687047D6
:1013400010B5FFF707FA3520FFF77EF9FFF7C2F96E
:1013500010BD00002DE9F0410427164CFFF7FAF903
:10136000154884421CD217E02046FFF7E6FF401CD8
:1013700088B1A4F100684FEAD8254FF0006000EB77
:10138000C5263046FFF766F90746042F00D006E071
:1013900006F5006400E0241D08488442E4D300BF41
:1013A000FFF798F9042F02D10020BDE8F0814FF03B
:1013B000FF30FAE7006000080000FF1FFBFF030892
:1013C000704710B500F002F810BD00000CB5002009
:1013D000019000903348006840F480303149086043
:1013E00000BF3048006800F4003000900198401CB5
:1013F0000190009818B90198B0F5A06FF1D1294873
:10140000006800F4003010B10120009001E00020DD
:1014100000900098012843D12348006840F0100054
:10142000214908600846006820F00300086008466B
:10143000006840F0020008601A4840681949486096
:101440000846406848600846406840F4806048604C
:101450000846406820F47C1048600846406840F424
:10146000E81048600846006840F08070086000BFDF
:101470000C48006800F000700028F9D00948406866
:1014800020F00300074948600846406840F0020029
:10149000486000BF0348406800F00C000828F9D1FC
:1014A0000CBD000000100240002002407047000008
:1014B00010B51348006840F0010011490860084663
:1014C0004068104908400E494860084600680E49C7
:1014D00008400B4908600846006820F48020086036
:1014E0000846406820F4FE0048604FF41F00886002
:1014F000FFF767FF4FF000600449086010BD00006F
:10150000001002400000FFF8FFFFF6FE08ED00E0CB
:1015100000BFFEE72DE9FC4100F0A7F800F09DF8C0
:1015200010B10520BDE8FC8100F0E0F805460DB1E2
:101530002846F7E7002600BF4FF0FF30009001ABD0
:10154000042269462B4801F08BF80446019868B1E3
:10155000009800F0F7F805460DB9761C06E025481E
:1015600000F03EFF01F0C0FB0620DBE714B9019854
:101570000028E1D100F0DCF801221FA11D4800F095
:101580006BFF04461CB101F0AFFB0720CAE71E4FFA
:10159000002600BF4FF0FF30009001AB04226946E7
:1015A000144801F05DF80446019868B13868009964
:1015B000884202D13F1D761C06E00E4800F010FF65
:1015C00001F092FB0720ADE714B901980028E1D1A2
:1015D000084800F005FF0DA001F06FFB10B10BA053
:1015E00001F0FAF909A104A001F008F901F07CFB6F
:1015F000002097E7840600206669726D7761726546
:101600002E62696E00000000006000086F6C642E9E
:1016100062696E0000B500F005F808B9002000BD51
:101620000420FCE705480068A0F10050B0F5404FE9
:1016300001D8002070470220FCE70000006000088D
:101640000146B1F5683F01D8002070470320FCE750
:1016500010B5FFF7E8FA002010BD10B5FFF77AFECD
:1016600008B9002010BD0520FCE710B5FFF768FEA3
:10167000002010BD10B501F033FB08B9012010BDEA
:1016800001220DA1104800F0E7FE18B101F02CFB7B
:101690000220F4E70C49C868FFF7D2FF30B10A48CE
:1016A00000F09EFE01F020FB0320E8E7064800F072
:1016B00097FE0020E3E700006669726D776172654E
:1016C0002E62696E000000008406002070B5054897
:1016D000446825460449086001460868FEF7A3FDF2
:1016E000A84770BD0060000808ED00E010B50122B9
:1016F00008A10C4800F0B0FE04461CB101F0F4FA59
:10170000022010BD084809490860FFF723F80020AF
:10171000F7E700006669726D776172652E62696E27
:10172000000000008406002000600008FC0100208A
:1017300010B5FEF7CFFF024800F052FE002010BDAA
:101740008406002010B504461448006814498842F5
:1017500004D8124800681349884203D2FEF7BAFF42
:10176000062010BD21460D480068FEF7BDFF042885
:101770000ED10A4800680068A04203D0FEF7AAFF15
:101780000620EEE705480068001D0449086003E0F4
:10179000FEF7A0FF0620E4E70020E2E7FC010020BE
:1017A000FCFF03080060000870B505460024002611
:1017B00000BF04E020200B490855601CC4B2192C5E
:1017C000F8DB2846FEF7ACFDC0F11900C0F3470670
:1017D000C6F11902711E034BC8182946FEF7BFFD5A
:1017E00070BD00000002002070B504460D460020C8
:1017F000E070401E20632946204601F09DFE08B19E
:10180000042070BD04F2322001F0C5FC4AF65521D7
:10181000884201D00320F4E700BF94F83400E9289F
:1018200007D094F83400EB2803D094F83400E8286B
:1018300011D1032209A104F16A0001F0F1FC08B9F9
:101840000020DEE7052206A104F1860001F0E8FC95
:1018500008B90020D5E70220D3E700004641540034
:101860004641543332000000024600E0521C10781A
:1018700010B110788842F9D1107870470246891E5D
:101880009069801E884201D8002070475389D06A31
:1018900003FB0100F9E700002DE9F04780460C4604
:1018A00004F11A0001F077FC10B10020BDE8F087C8
:1018B000207800F03F00401E00EB800101EBC005E6
:1018C0004FF00109002621E01849895D081901F04F
:1018D00062FC0746B9F1000F11D0FF2D0BD8384636
:1018E00001F008F9824629466D1C38F8110001F014
:1018F00001F9824501D00020D8E7B94605E04FF64E
:10190000FF70874201D00020D0E7761C0D2EDBD37C
:10191000207800F0400038B1B9F1000F04D038F859
:10192000150008B10020C1E70120BFE72C3B0008EB
:101930002DE9F04782468846DAF80040B8F1000FFA
:1019400006D1276917B1A069B84215D8012713E05D
:101950004146504601F032FA0546022D02D20120DE
:10196000BDE8F087681C08B92846F9E7A069A842D5
:1019700001D92846F4E74746606908B90020EFE737
:101980000026474518D17E1CA069B04200D8022627
:101990003146504601F012FA0546012D01D0681C6F
:1019A00008B92846DCE73DB12569022D03D3A069BB
:1019B000A84200D92F460026E6B93E4600BF761C55
:1019C000A069B04204D80226BE4201D90020C7E770
:1019D0003146504601F0F2F9054605B909E0012DFE
:1019E00001D0681C08B92846BAE7BE42E7D10020FA
:1019F000B6E700BF4FF0FF323146204601F0FCFD54
:101A00008146B9F1000F08D1B8F1000F05D0324678
:101A10004146204601F0F0FD8146B9F1000F0DD19D
:101A20002661D4E90510801E814202D86069401EFB
:101A30006061207940F00100207107E0B9F1010FE9
:101A400002D14FF0FF3000E001200646304687E724
:101A50002DE9F34F83B08146049800680090D9F8CF
:101A60000000D0F80CA0002500BF684601F090FFF0
:101A700083460BF1010018B9062005B0BDE8F08FD0
:101A8000BBF5803F05D34FEA1B4228466D1C2AF860
:101A900010201FFA8BF4202C03DB2F2C01D05C2CA0
:101AA00000D111E0802C06DA21467BA0FFF7DCFE96
:101AB00008B10620E1E7FF2D01D30620DDE7284627
:101AC0006D1C2AF81040D0E700BF202C01DA042654
:101AD0000CE0002602E00098401C0090009800787E
:101AE0002F28F8D0009800785C28F4D0009904984A
:101AF000016008E0681E3AF81040202C02D02E2C1D
:101B000000D002E06D1E002DF4D100BF00202AF8A5
:101B100015000DB90620B0E7002700E07F1C3AF859
:101B200017002028FAD01FB93AF817002E2801D143
:101B300046F0030600E06D1E25B1681E3AF810005D
:101B40002E28F8D10B22202109F1200001F087FB7B
:101B50004FF00008CDF808800820019000BF3846FB
:101B60007F1C3AF8104004B96AE0202C03D02E2CD8
:101B700004D1AF4202D046F00306F0E7DDE90110E0
:101B8000884201D2AF4216D101980B2802D146F00B
:101B9000030655E0AF4201D046F00306AF4200D93C
:101BA0004EE02F46082002900B2001904FEA8860FB
:101BB0004FEA1068D3E7802C0EDB46F0020640F2B5
:101BC000B511204600F076FF044604F0800018B1FD
:101BD00004F07F0033490C5CFF2C11DD0198401E9E
:101BE0000299884204D846F0030601980290B6E7AD
:101BF00022120298411C029109F120010A5418E0B6
:101C000024B1214628A0FFF72FFE18B15F2446F02B
:101C100003060EE0412C03DB5A2C01DC48F00208DD
:101C2000612C06DB7A2C04DC48F00108A4F12000CA
:101C300084B20298411C029109F120010C548EE7F4
:101C400000BF99F82000E52802D1052089F820007E
:101C50000198082803D14FEA88604FEA106808F01D
:101C60000C000C2803D008F00300032801D146F033
:101C7000020606F0020048B908F0010008B146F07B
:101C8000100608F0040008B146F008062B2000F802
:101C900009600020F1E60000222A3A3C3E3F7C7FAA
:101CA00000000000393B00082B2C3B3D5B5D000031
:101CB000014609B1002070470020FCE701B581B062
:101CC0000020009042F2107101984843009002E019
:101CD0000098401E009000980028F9D10CBD2DE915
:101CE000F04104460E46D4F800800021204600F062
:101CF000A6FA0546EDB9002700BF4046A16901F0EC
:101D00001BFC054605B113E0E0690078E52802D028
:101D1000E069007820B9781C0746B04201D107E09D
:101D200000270121204600F0EBF80546002DE4D005
:101D300000BF042D00D107252846BDE8F0812DE91C
:101D4000F04704468946204601F0FCFD10B1012011
:101D5000BDE8F08749462046FFF790FD0746276318
:101D60004FF40072002104F1340001F078FA608928
:101D70004FF40041B1EB402F01D8084601E06089E3
:101D8000400206464FF0000800E07608B6F5007FF6
:101D900005D9304600F082FEB0F10008F5D0B6F566
:101DA000007F17D932460021404601F058FA760AE2
:101DB000002500E035446089A84207D97A19607887
:101DC0003346414600F0E0FA0028F3D0404600F0E8
:101DD0006BFE10E004F134080126002500E03544D4
:101DE0006089A84207D97A1960783346414600F0E5
:101DF000CBFA0028F3D06089A84201D00120A7E7E0
:101E00000020A5E72DE9F0470446D4F800A0002102
:101E1000204600F014FA064616B13046BDE8F087B9
:101E20004FF0FF08C1464FF0FF30E06200BF504660
:101E3000A16901F081FB064606B15EE0E069057824
:101E40000DB9042659E0E069C07A00F03F07A77198
:101E5000E52D04D007F0080038B10F2F05D04FF062
:101E6000FF084FF0FF30E06240E00F2F22D12B201F
:101E7000005D00F0400098BB05F0400038B1E0691B
:101E800090F80D9005F0BF05A8462069E062454531
:101E90000CD1E069407B484508D1E169DAF80C00D3
:101EA000FFF7FAFC10B1A8F1010000E0FF2000F0FC
:101EB000FF081BE0B8F1000F05D1E06901F0E9FC73
:101EC000484500D119E02B20005D00F0010040B929
:101ED0000B2204F12001E06901F0A2F908B90CE03D
:101EE00004E04FF0FF084FF0FF30E0620021204691
:101EF00000F006F80646002E99D000BF30468DE768
:101F00002DE9F041044688462768206900F1200643
:101F1000B6F5001F01D30020A061A06910B904200C
:101F2000BDE8F081C6F30800002845D1A069401C37
:101F3000A061606938B93889B0EB561F3CD80020E1
:101F4000A0610420ECE77889401E00EA562098BB87
:101F50002046616900F032FF0546012D01D80220BC
:101F6000DEE7681C08B90120DAE7B869A8421DD885
:101F7000B8F1000F03D10020A0610420D0E7204673
:101F80006169FFF7D5FC05460DB90720C8E7012DAB
:101F900001D10220C4E7681C08B90120C0E7294626
:101FA0003846FFF7CCFE08B10120B9E76561294644
:101FB0003846FFF763FCA0612661C6F3080107F10C
:101FC00034000844E0610020AAE72DE9F05F0446F0
:101FD00089460426D4F800A04FF0FF08C34653E01A
:101FE0005046A16901F0A8FA064606B14FE0E06943
:101FF00005780DB904264AE0E069C07A00F03F0791
:10200000A771E52D0AD02E2D08D027F02000082832
:1020100001D1012000E00020484502D04FF0FF0828
:102020002BE00F2F1DD105F0400038B1E06990F88A
:102030000DB005F0BF05A8462069E06245450CD10A
:10204000E069407B584508D1E169DAF80C0001F0FD
:102050008DFA10B1A8F1010000E0FF2000F0FF08A8
:102060000BE0B8F1000F04D1E06901F012FC584513
:1020700002D04FF0FF30E06209E000212046FFF778
:102080003FFF064606B102E0A0690028A8D100BFC4
:102090000EB10020A0613046BDE8F09F2DE9FE4F53
:1020A000044626682B20005D00F0A00010B1062039
:1020B000BDE8FE8F4FF0000901E009F10109F06869
:1020C00030F819000028F8D10C2204F120016846EC
:1020D00001F0B8F89DF80B0000F0010028B3402192
:1020E0002B2001554FF001080EE04346694604F1EC
:1020F0002000F26800F0FCFD2046FFF783FE054655
:1021000005B104E008F10108B8F1640FEDD300BF98
:10211000B8F1640F01D10720CAE7042D01D0284689
:10212000C6E79DF80B102B2001559DF80B0000F021
:10213000020030B109F10C000D21B0FBF1F0401CA0
:1021400000E00120074639462046FFF7C8FD054656
:102150004DBB781E071E26D02069A0EB47112046F4
:1021600000F06DF80546F5B904F1200001F091FB8F
:10217000824600BF3046A16901F0DEF9054605B18F
:1021800010E0FAB2E1695346F06801F0D1FA01209B
:10219000F07000212046FFF7B3FE054615B9781E02
:1021A000071EE7D100BFC5B93046A16901F0C4F9E7
:1021B000054695B920220021E06901F050F80B2274
:1021C00004F12001E06901F03DF82B20005D00F0F2
:1021D0001800E16908730120F070284668E72DE9CE
:1021E000F041044626682769E06A401C08B90020CF
:1021F00003E02046E16A00F022F80546E5B900BF99
:102200003046A16901F098F9054605B110E000BF1C
:10221000E520E16908700120F0702069B84200D320
:1022200006E000212046FFF76BFE0546002DE7D0B3
:1022300000BF042D00D102252846BDE8F0812DE91C
:10224000F04104460D462668B5F5001F02D205F0A0
:102250001F0010B10220BDE8F0812561A7681FB9F9
:102260003078032800DBB76A47B93089B0EB551FD7
:1022700001D80220EFE7B06AA0611CE070894FEA44
:10228000402811E03946204600F098FD0746781CAA
:1022900008B90120DFE7022F02D3B069B84201D8A4
:1022A0000220D8E7A5EB08054545EBD23946304674
:1022B000FFF7E4FAA0616761A06908B90220CAE7E4
:1022C000A06900EB5520A061C5F3080106F13400B8
:1022D0000844E0610020BEE770B50446002504E034
:1022E00001200D494855681CC5B2022DF8DB14B118
:1022F000012C0BD109E0FEF7B3FC28B90648005DBC
:1023000020F001000449085502E001E0042070BDFE
:1023100000BF0148005DFAE7EE01002003460BB95B
:10232000002070470420FCE72DE9F04104460E46EA
:1023300017461D4615B90420BDE8F0810C48005D24
:1023400000F0010008B10320F6E714B1012C0CD114
:1023500009E0EAB239463046FEF752FD08B90020DE
:10236000EAE70120E8E70120E6E70420E4E70000CF
:10237000EE0100200146022901DB012070470148DF
:10238000405CFBE7EE0100202DE9F04104460E46DB
:1023900017461D4615B90420BDE8F0810F48005DC1
:1023A00000F0010008B10320F6E70C48005D00F0E2
:1023B000040008B10220EFE714B1012C0CD109E0B0
:1023C000EAB239463046FEF723FE08B90020E3E7BB
:1023D0000120E1E70120DFE70420DDE7EE01002036
:1023E00038B50546284600F0A7FA04463CB96946C8
:1023F000284601F055FB04460CB900202860204611
:1024000038BD0000F7B582B016460398019001A8C8
:1024100000F044FD0546002D02DA0B2005B0F0BDAA
:102420000C4850F825400CB100202070029810B1E3
:102430000020029908700749029841F825000EB95A
:102440000020EBE7002202A903A800F021FF0746C5
:102450003846E3E7F00100202DE9F74F8EB004463F
:1024600016461CB9092011B0BDE8F08F06F03F06F2
:10247000324601A90FA800F00BFF0546002D74D1CC
:10248000019802904FF4007000F008FB8346BBF106
:10249000000F01D11120E6E70198C0F80CB002A8A6
:1024A0000F9900F0BBFB05462DB99DF8330000F0F5
:1024B000800000B1062506F01C0000284DD045B173
:1024C000042D03D102A8FFF7E9FD054646F00806F2
:1024D0000AE09DF80E0000F0110008B1072503E0A6
:1024E00006F0040000B10825002D48D106F00800D0
:1024F000002844D00999019800F02EFE81460999E0
:1025000001F10E00554901F0B2F920200999C87275
:1025100000220999019801F098F9099901F11C002C
:10252000002101F0A4F901200199C870B9F1000F50
:1025300025D00198D0F830A00022494602A801F029
:1025400037F90546DDB95146019800F0F5FF05461B
:10255000A9F101000199086111E085B99DF80E000B
:1025600000F0100010B1042509E071E006F002004F
:1025700028B19DF80E0000F0010000B107254DB90B
:1025800006F0080008B146F040060198006B206292
:1025900009986062002D58D10999019800F0DCFD7E
:1025A000A060099901F11C0000F0E9FDE0600198CC
:1025B00020600198C088A080267400206074E061CB
:1025C00060614FF40072002104F1280000F047FE22
:1025D00006F0200058B3E06848B3E06860610198F5
:1025E000408940020090A768D4F80C800DE039467D
:1025F000204600F0E3FB0746012F00D80225781C97
:1026000000B901250098A8EB000815B9009880458D
:10261000EDD8A7615DB9C8F3080040B1394601980B
:10262000FFF72CF98246BAF1000F01D102250CE028
:102630000AEB5820E061E26901994878012304F12E
:102640002801FFF771FE00B10125584600F02CFA71
:102650000DB100202060284605E700000000214E53
:102660002DE9FF4F85B0044615469A46DDF818B0AF
:102670000020CAF8000003A9204601F011FA0490D6
:10268000049810B9607C049018B1049809B0BDE8B2
:10269000F08F207C00F0010008B90720F6E761699F
:1026A000E068401A01900198854200D9019DA0E0A0
:1026B000A08AC0F3080000287ED103984089401EFC
:1026C000616900EA5129B9F1000F17D1606910B9A9
:1026D000A068029004E02046A16900F06FFB029020
:1026E0000298022802D202206074CFE70298401CB0
:1026F00010B901206074C9E70298A061A16903982C
:10270000FFF7BCF8064616B902206074BEE74E44D7
:102710004FEA5528B8F1000F29D009EB08000399BA
:102720004989884203D903984089A0EB0908039995
:102730004878434632465946FFF7F6FD10B101206E
:102740006074A3E7207C00F0800068B1E069801B22
:10275000404509D2E169891B0BEB41204FF400721F
:1027600004F1280100F06EFD4FEA482737E0E069E8
:10277000B04220D0207C00F0800078B1E26903995B
:102780004878012304F12801FFF7FEFD10B1012074
:1027900060747BE7207C00F07F0020740399487808
:1027A0000123324604F12801FFF7BEFD18B10120D4
:1027B00060746BE700E0E661A08AC0F30800C0F532
:1027C0000077AF4200D92F46A08AC0F3080204F177
:1027D000280011183A46584600F034FD00BFED1BA2
:1027E000DAF800003844CAF80000BB446069384495
:1027F0006061002D7FF45CAF002047E72DE9F341D5
:10280000A2B023A800F04AFB022209A922A800F0E6
:102810003FFD0446002C7DD1099816904FF40070BE
:1028200000F03CF907461FB9112024B0BDE8F08143
:102830000998C76016A8229900F0F0F904462CB94F
:102840009DF8830000F0A00000B10624002C6ED19A
:10285000202201A81D9900F0F5FC302216A90AA833
:1028600000F0F0FC0AA8239900F0D8F904465CB9FE
:1028700018990C98884205D11A990E98884201D16E
:10288000042000E008200446042C46D10AA8FFF7E3
:1028900005FC0446002C40D1119D13220DF11101BD
:1028A00005F10D0000F0CEFC9DF80F00E872E87A0B
:1028B00000F0100018B9E87A40F02000E87201201A
:1028C0000999C870E87A00F0100030B30C99189894
:1028D000884222D02946099800F03EFC80464146B5
:1028E0000998FEF7CBFF06460EB9022415E03146E3
:1028F000099800F021FE0446099800F1540564B9D6
:1029000068782E2809D129460C9A099800F09DFF75
:10291000012000E00EE00999C87044B916A8FFF73D
:102920005EFC04461CB9099800F0C4FF0446384612
:1029300000F0BAF8204678E7F8B504466946204624
:1029400001F0AEF80646002E42D1207C00F0400097
:1029500000283DD0207C00F0800070B1E269009931
:102960004878012304F12801FFF70EFD08B101208A
:10297000F8BD207C00F07F002074164F216A00987B
:1029800000F0DAFD06461EBB656AE87A40F02000DA
:10299000E8722946A268206800F057FF05F11C0084
:1029A000E16800F064FF394605F1160000F05FFFB2
:1029B000002105F1120000F066FF01200099C870A7
:1029C000009800F077FF0646207C00F0BF002074DE
:1029D0003046CDE70000214E71B599B000260222A5
:1029E000694619A800F054FC0446002C54D1009804
:1029F0000D904FF4007000F051F8054615B9112004
:102A00001AB070BD0098C5600DA8199900F006F9BC
:102A1000044600BF002C3CD19DF85F0000F0800010
:102A200008B1062405E09DF83A0000F0010000B16D
:102A30000724E4B91499009800F08EFB06469DF82F
:102A40003A0000F0100090B1009801900396002128
:102A500001A8FFF7F4FB04464CB9002101A8FFF7D9
:102A6000B4FA044604B90724042C00D1002484B924
:102A70000DA8FFF7B4FB044634B92EB1002231464D
:102A80000DA800F095FE04461CB9009800F012FF56
:102A90000446284600F008F82046B1E710B5044681
:102AA0002046FDF7E7FB10BD10B504462046FDF7B4
:102AB00010FC10BD10B5024600200D4B802A01D23B
:102AC00090B213E0B2F5803F10D240F2B514A142AB
:102AD0000CD1002001E0441CA0B2802803DA33F8B6
:102AE00010409442F7D100F18004E0B210BD000024
:102AF000BA3B000870B5B0F5803F4DD281B2B1F558
:102B0000805F01DA254E00E0254E324600BF32F8E4
:102B1000023B0BB1994200DA3CE032F8024B25123D
:102B2000E4B21E198E4230DD092D2CD2DFE805F00B
:102B300005090F13171B1F232700CE1A32F8161092
:102B400021E0CE1A06F001068E1BB1B21BE0A1F106
:102B50001006B1B217E0A1F12006B1B213E0A1F165
:102B60003006B1B20FE0A1F11A06B1B20BE001F1EB
:102B70000806B1B207E0A1F15006B1B203E0A1F539
:102B8000E356B1B200BF00BF04E0002DBFD102EB9D
:102B90004402BCE700BF084670BD0000BA3C000814
:102BA000AC3E00082DE9FF4107460D46002138469E
:102BB000FEF71AFE0646022E06D0032E00D21DB9DD
:102BC000304604B0BDE8F08100BF00240AE007F5FC
:102BD000F97101EB041101F1080000F0D0FA4DF891
:102BE0002400641C042CF2D30DB1681E00E0002008
:102BF000044600BF5DF8240028B15DF82410384673
:102C0000FEF7F2FD00E0032006462DB9022E03D3A5
:102C1000601C04460428EDD33046D2E72DE9F34189
:102C20000446276802E00198401C01900198007852
:102C30002F28F8D0019800785C28F4D00020A060FC
:102C400001980078202808D280212B2001550021EE
:102C50002046FFF7F4FA05462CE000BF01A9204604
:102C6000FEF7F6FE054605B123E02046FFF7CAF859
:102C700005462B20065D3DB1042D04D100BF06F0B2
:102C8000040000B9052514E006F0040000B110E0CE
:102C9000A07900F0100008B905250AE0208AC0F3E9
:102CA000080207F134001118384600F055FAA06008
:102CB000D4E700BF2846BDE8FC8110B5ADF50A7D1C
:102CC0000446002221466846FFF7C6FB30B9684635
:102CD000FFF786FB01200DF50A7D10BD0020FAE705
:102CE00010B500F0C5FA10BD10B500F0CBFE10BD58
:102CF0002DE9FF4F83B0804691461E460B22404689
:102D0000049900F09FFA052E18D9374611E039F8DA
:102D100002BB00250BE0584667F35F0007464FEA09
:102D20006B0B07F4803008B1234847406D1C102D11
:102D3000F1D3B9F800000028E9D13E46072500BFCD
:102D400006F00F0000F1300ABAF1390F03DD0AF185
:102D5000070000F0FF0A28466D1E01A901F800A037
:102D60003609002EECD17E20485500240AE018F8E0
:102D70000400FEF79DFF20B1681EA04200D107E0CD
:102D8000641C641CAC4203D218F804002028EED165
:102D900000BF00BF082D04D228466D1C01A9085CA5
:102DA00000E020202146641C08F80100082CF1D323
:102DB00007B0BDE8F08F0000211001002DE9F047B9
:102DC00081460C46D9F80050022C02D3A869A042D3
:102DD00002D84FF001085EE04FF0FF382878012854
:102DE00004D002282CD0032851D13CE0264606EB23
:102DF0005606686A00EB5621284600F09DFB00B19C
:102E000048E03046761CC0F3080105F13400475C09
:102E1000686A00EB5621284600F08EFB00B139E0CD
:102E2000C6F3080105F13400405C47EA002704F0CE
:102E3000010008B1380901E0C7F30B00804629E022
:102E4000686A00EB1421284600F076FB00B121E00F
:102E500040F2FF1101EA440205F13401501800F07C
:102E60009AF9804616E0686A00EBD411284600F013
:102E700063FB00B10EE040F2FF1101EA840205F1AC
:102E80003401501800F07BF920F0704802E04FF058
:102E9000010800BF00BF4046BDE8F087F0B5064618
:102EA0004FF0FF30D6F800C06146634601B9F0BD6F
:102EB00000BF13F8012B202A01D33A2AF9D13A2A6C
:102EC00040D1022591F800C0BCF1300F0DDB91F824
:102ED00000C0BCF1390F08DC01F1020C9C4504D1A3
:102EE00091F800C0ACF1300527E0002500BFDFF805
:102EF0005CC05CF82570316800BF17F8014B11F811
:102F0000012B612C05DB7A2C03DCA4F1200C0CF0E6
:102F1000FF04612A05DB7A2A03DCA2F1200C0CF005
:102F2000FF020CB19442E8D00CB9994205D005F1EA
:102F3000010C6546BCF1020FD9DB022D01DA2846EF
:102F40003360B4E7002000BFB1E70000243B000875
:102F500070B505460C4600BF05F1AF01C8B2FDF7DC
:102F600091FDC4F3031101F11000FDF78BFD04F096
:102F70000F00FDF787FD70BD2DE9F041074688463B
:102F80001446A4F12000C4B204EB8400084946189A
:102F900041463846FFF7DCFF002505E0307800F0B9
:102FA000BDF8761C681CC5B2052DF7DBBDE8F081C5
:102FB0000D00002070B5002415E004F1B001C8B286
:102FC000FDF760FD1020FDF75DFD0020FDF75AFDC7
:102FD000002504E0002000F0A1F8681CC5B2842D93
:102FE000F8DB601CC4B2092CE7DB70BD70B5054688
:102FF000002400212846FFF7ABFF00BF04E00020BB
:1030000000F08CF8601CC4B2842CF8DB70BD0000AA
:1030100010B50348FDF7BEFB0248FDF7BBFB10BD32
:1030200000080140000C014008B501210D20FDF70A
:1030300067FD3020ADF8000010208DF8030003205C
:103040008DF8020069460B48FDF71AFC4FF400406A
:10305000ADF8000010208DF8030003208DF8020069
:1030600069460548FDF70CFC07210020FEF75AF9D8
:1030700008BD0000000C01400008014010B5072108
:103080000020FEF7CBF810211848FDF7E3FC3220B2
:10309000FEF714FE10211548FDF7DEFC0120FEF7B7
:1030A0000DFEE220FDF7EEFC0120FEF707FEA0205A
:1030B000FDF7E8FCC820FDF7E5FCA220FDF7E2FCE7
:1030C0002F20FDF7DFFC2520FDF7DCFC8120FDF73C
:1030D000D9FC1E20FDF7D6FC1020FDF7D3FC4020C4
:1030E000FDF7D0FCAF20FDF7CDFC10BD000C01407A
:1030F00070B506460D46144605EB45004006050E24
:1031000007E0227829463046FFF736FFA81DC5B2F2
:10311000641C20780028F4D170BD000010B504466E
:1031200020210B48FDF796FC4FF400410948FDF7BC
:1031300093FC0120FEF7C2FD21460020FEF7BCF8FB
:103140000120FEF7BBFD20210148FDF785FC10BDE5
:10315000000C01400008014070B505460C4604F122
:103160001A0000F018F806462878032805D104F163
:10317000140000F010F846EA0046304670BD0146E3
:10318000C8788A7842EA00204A7842EA00200A7821
:1031900042EA00207047014648780A7842EA002057
:1031A000704700004FF4A060FDF78EFC00F04EFC6D
:1031B000FEF760FA00B110E000F05EFC0CA000F039
:1031C0004BFC0FA000F048FCFEF7A4F900B104E0AE
:1031D000FEF720FA00B100E000BF0CA000F03CFCBC
:1031E000FEF736FA00F02CFCFEF770FA00BFFEE79F
:1031F000496E697469616C697A696E672E2E2E005A
:10320000426F6F74696E672E2E2E00004C61756ED2
:103210006368696E67204150502E2E2E000000001A
:10322000F0B503461D460C46002000BF15F8017B93
:1032300014F801CBA7EB0C00561E321E01D000285B
:10324000F4D0F0BD30B503460C463AB100BF14F8D7
:10325000015B03F8015B551E2A1EF8D130BD10B585
:10326000034600BF03F8011B541E221EFAD110BDF5
:1032700010B5012204A10548FFF7C4F808B90120E0
:1032800010BD0020FCE7000053443A001C0200205F
:103290002DE9F74F84B00021059801600498FFF7ED
:1032A000FDFD03900398002803DA0B2007B0BDE86A
:1032B000F08F9C49039851F820400CB90C20F5E799
:1032C00005980460069800F0FE000690207878B11A
:1032D0006078FFF74FF8074607F0010040B90698FD
:1032E00020B107F0040008B10A20DFE70020DDE785
:1032F00000202070039860706078FEF7EDFF0746AD
:1033000007F0010008B10320D0E7069820B107F0CC
:10331000040008B10A20C9E700212046FFF742FC5B
:103320000546042D01D10120C0E7022D01D30D2057
:10333000BCE7D4F8309004F13F00FFF72CFFB0F564
:10334000007F01D00D20B1E704F14A00FFF723FF11
:10335000064626B904F15800FFF711FF0646E6615C
:103360004420005DA070A078012804D0A078022835
:1033700001D00D209AE7A07846434120005D60818E
:10338000608918B16089411E084008B10D208DE7A1
:1033900004F14500FFF7FFFE2081207A00F00F00C6
:1033A00008B10D2082E704F14700FFF7F4FE8246E2
:1033B000BAF1000F04D104F15400FFF7E0FE824699
:1033C00004F14200FFF7E7FE8346BBF1000F01D195
:1033D0000D206BE70BEB0600218900EB111002902A
:1033E0000298824501D20D2060E70298AAEB000006
:1033F0006189B0FBF1F8B8F1000F01D10D2055E75C
:1034000000254948804500D803254FF6F5708045D2
:1034100000D8022540F6F570804500D801250DB989
:103420000D2043E708F10200A061C4F8209009EBE9
:103430000B00606202984844E062032D13D104F14E
:103440005E00FFF7A8FE08B10D202FE7208908B124
:103450000D202BE704F16000FFF791FEA062A06948
:103460008000019014E0208908B90D201EE7606AF1
:103470003044A062022D02D1A069400007E0207E06
:1034800000F00100A16901EB410100EB5100019046
:10349000E169019800F2FF10B1EB502F01D20D202D
:1034A00004E74FF0FF306061206180202071032D20
:1034B0002DD104F16400FFF76EFE012827D109F138
:1034C0000101204600F038F808BB0020207104F20A
:1034D0003220FFF760FE4AF65521884217D104F1E9
:1034E0003400FFF74CFE1149884210D104F50670F4
:1034F000FFF745FE0E49884209D104F50770FFF732
:103500003EFE606104F50870FFF739FE206125700A
:1035100008480088401C80B206490880E0800020EE
:10352000C4E60000F0010020F5FFFF0F5252614198
:1035300072724161F801002070B504460D46002604
:10354000206BA84210D0204600F0FCF906465EB978
:10355000607801232A4604F13401FEF7E5FE10B13C
:103560004FF0FF3501262563304670BD2DE9F04749
:1035700080460C4604F11A00FFF70DFE10B1002042
:10358000BDE8F087207820F04000401E00EB80016D
:1035900001EBC0054FF00109002619E01549895DCE
:1035A0000819FFF7F8FD0746B9F1000F09D0FF2D04
:1035B00001D90020E4E7B94628466D1C28F81070B0
:1035C00005E04FF6FF70874201D00020D8E7761C57
:1035D0000D2EE3D3207800F0400048B1B9F1000F80
:1035E00006D0FF2D01D90020CAE7002028F81500D9
:1035F0000120C5E72C3B00082DE9F04704460D46A5
:1036000016464FF00209022D74D3A069A84271D961
:103610002078012804D0022849D003280DD15EE08B
:103620002F4607EB5707606A00EB57212046FFF74C
:1036300083FF8146B9F1000F00D075E038467F1C4A
:10364000C0F3080104F1340001EB000805F00100AB
:1036500028B1F1B298F8000061F31F1000E0304685
:1036600088F800000120E070606A00EB57212046D6
:10367000FFF762FF8146B9F1000F00D054E0C7F3B5
:10368000080104F1340001EB000805F0010010B15D
:10369000C6F3071006E098F8000000F0F000C6F34B
:1036A0000321084388F800000120E0703CE0606AD4
:1036B00000EB15212046FFF73FFF8146B9F1000FCF
:1036C00000D031E0B1B240F2FF1202EA450304F14A
:1036D0003402981800F0D7F80120E07024E0606A06
:1036E00000EBD5112046FFF727FF8146B9F1000F07
:1036F00001D019E019E040F2FF1101EA850204F15E
:1037000034015018FFF73BFD66F31B00064640F2FC
:10371000FF1101EA850204F134015018314600F02E
:10372000A6F80120E07000BF00BF4846BDE8F08762
:103730002DE9F04707460C461546984684F80D805B
:103740000F20E07200202073002104F11A0000F025
:103750009AF8681E00EB800101EBC00900200646C4
:10376000824600BF4FF6FF70864204D0484609F1FA
:10377000010937F810600D4911F80A10081931468F
:1037800000F081F80EB94FF6FF760AF1010082468B
:103790000D28E7D34FF6FF70864202D037F81900A4
:1037A00008B945F040052570BDE8F0872C3B0008BE
:1037B0002DE9F04781460E4617464FF00008D9F82C
:1037C0000040022E02D3A069B04202D80220BDE818
:1037D000F08767B100BF4FF0FF3239462046FFF750
:1037E0000BFF8046B8F1000F01D04046EFE700BF65
:1037F00031464846FFF7E2FA054605B922E0012DB9
:1038000001D10220E3E7681C08B90120DFE70022AC
:1038100031462046FFF7F0FE8046B8F1000F01D098
:103820004046D4E7D4E90510801E814206D2606983
:10383000401C6061207940F0010020712E46A06993
:10384000B042D5D800BF0020C1E770B506460C468F
:103850001546A9B204F11A0000F015F830780328D3
:1038600004D1290C04F1140000F00DF870BD00F82B
:10387000011B090A00F8011B090A00F8011B090ACB
:1038800000F8011B704700F8011B091200F8011B2A
:10389000704730B5014600200B2200BF431003EBF8
:1038A000C01411F8015B6319D8B2531E1A1EF5D16A
:1038B00030BD000070B50446204600F043F80546D0
:1038C000002D38D1207803282ED1207901282BD142
:1038D0004202002104F13400FFF7C1FC4AF65521F1
:1038E00004F23220FFF7CFFF144904F13400FFF750
:1038F000BEFF134904F50670FFF7B9FF04F5077022
:103900006169FFF7B4FF04F508702169FFF7AFFFA5
:10391000206A401C20636078012304F13401226B8B
:10392000FEF732FD00202071607800221146FEF77C
:10393000F5FC00B10125284670BD000052526141DE
:103940007272416170B504460025E078E8B1607894
:10395000012304F13401226BFEF716FDA0B900200B
:10396000E070616A206B401AE16988420DD2A0784C
:1039700002280AD1E369216BCA186078012304F197
:103980003401FEF701FD00E00125284670BD00006E
:1039900070B50446226812F8011B01F0800000286F
:1039A00047D001F0E000C02803D101F01F0101233E
:1039B00012E001F0F000E02803D101F00F01022332
:1039C0000AE001F0F800F02803D101F00701032319
:1039D00002E04FF0FF3070BD00BF12F8015B05F050
:1039E000C000802802D04FF0FF30F4E7284661F392
:1039F0009F100146581E031EEFD1802908D3B1F550
:103A0000584F02D3B1F5604F02D3B1F5881F02D3EE
:103A10004FF0FF30DFE7B1F5803F0AD3A1F58030EA
:103A2000054E06EA8010054E3043C1F3090640EA10
:103A3000060122600846CEE70000FF0300DC00D844
:103A400010B5FFF7B7FAFFF7E3FA10BD10B5FDF7B1
:103A50007DF8FFF7E9FA10BD10B504460220FFF724
:103A6000C5FA2046FDF7A0FE024A00210220FFF71A
:103A70003FFB10BD0002002010B5FFF7FFFAFFF773
:103A800099FA10BD10B5012204A10020FEF7BAFC7E
:103A900008B9012010BD0020FCE7000053443A00A3
:103AA00070B504460D4609268CB1206878B12068AF
:103AB000007860B1A0882168C988884207D1216850
:103AC0004878FEF757FC00F0010000B900260EB957
:103AD000206800E000202860304670BD00080140EA
:103AE000000C01400010014000140140001801408A
:103AF000001C01400020014000300140003800401F
:103B0000003C004004100000084000000880000055
:103B100020000020080040000040100080000080CD
:103B200020000000683F00086C3F00080103050703
:103B3000090E10121416181C1E809A45418E418FD2
:103B4000804545454949498E8F9092924F994F55EE
:103B50005559999A9B9C9D9E9F41494F55A5A5A655
:103B6000A7A8A9AAABACADAEAFB0B1B2B3B4B5B66D
:103B7000B7B8B9BABBBCBDBEBFC0C1C2C3C4C5C65D
:103B8000C7C8C9CACBCCCDCECFD0D1D2D3D4D5D64D
:103B9000D7D8D9DADBDCDDDEDFE0E1E2E3E4E5E63D
:103BA000E7E8E9EAEBECEDEEEFF0F1F2F3F4F5F62D
:103BB000F7F8F9FAFBFCFDFEFF00C700FC00E90086
:103BC000E200E400E000E500E700EA00EB00E800C6
:103BD000EF00EE00EC00C400C500C900E600C6001E
:103BE000F400F600F200FB00F900FF00D600DC0054
:103BF000A200A300A500A7209201E100ED00F300C0
:103C0000FA00F100D100AA00BA00BF001023AC00F6
:103C1000BD00BC00A100AB00BB00912592259325FF
:103C20000225242561256225562555256325512524
:103C300057255D255C255B251025142534252C256D
:103C40001C2500253C255E255F255A255425692520
:103C50006625602550256C25672568256425652522
:103C600059255825522553256B256A2518250C25DD
:103C7000882584258C2590258025B103DF009303BA
:103C8000C003A303C303B500C403A6039803A90399
:103C9000B4031E22C603B50329226122B1006522A6
:103CA000642220232123F7004822B0001922B70004
:103CB0001A227F20B200A025A00061001A03E000B4
:103CC0001703F8000703FF0001007801000130012D
:103CD00032010601390110014A012E017901060164
:103CE00080014D004302810182018201840184012F
:103CF00086018701870189018A018B018B018D0172
:103D00008E018F0190019101910193019401F601BF
:103D100096019701980198013D029B019C019D012C
:103D200020029F01A001A001A201A201A401A401FF
:103D3000A601A701A701A901AA01AB01AC01AC0131
:103D4000AE01AF01AF01B101B201B301B301B501E1
:103D5000B501B701B801B801BA01BB01BC01BC0192
:103D6000BE01F701C001C101C201C301C401C50107
:103D7000C401C701C801C701CA01CB01CA01CD01F5
:103D80001001DD0101008E01DE011201F3010300CB
:103D9000F101F401F401F8012801220212013A02B2
:103DA0000900652C3B023B023D02662C3F024002AB
:103DB0004102410246020A0153024000810186018C
:103DC000550289018A0158028F015A0290015C0252
:103DD0005D025E025F02930161026202940164026D
:103DE000650266026702970196016A02622C6C0204
:103DF0006D026E029C01700271029D0173027402D9
:103E00009F0176027702780279027A027B027C02B5
:103E1000642C7E027F02A60181028202A901840233
:103E2000850286028702AE014402B101B201450259
:103E30008D028E028F0290029102B7017B03030074
:103E4000FD03FE03FF03AC0304008603880389031C
:103E50008A03B1031103C2030200A303A303C40333
:103E60000803CC0303008C038E038F03D8031801CF
:103E7000F2030A00F903F303F403F503F603F7036F
:103E8000F703F903FA03FA03300420035004100780
:103E9000600422018A043601C1040E01CF0401002E
:103EA000C004D00444016105260400007D1D01000A
:103EB000632C001E9601A01E5A01001F0806101F49
:103EC0000606201F0806301F0806401F0606511F61
:103ED0000700591F521F5B1F541F5D1F561F5F1F96
:103EE000601F0806701F0E00BA1FBB1FC81FC91F26
:103EF000CA1FCB1FDA1FDB1FF81FF91FEA1FEB1FBA
:103F0000FA1FFB1F801F0806901F0806A01F080647
:103F1000B01F0400B81FB91FB21FBC1FCC1F010087
:103F2000C31FD01F0206E01F0206E51F0100EC1FA1
:103F3000F31F0100FC1F4E210100322170211002ED
:103F4000842101008321D0241A05302C2F04602CF9
:103F50000201672C0601752C0201802C6401002DE2
:103F6000260841FF1A0300005344000055000000DA
:103F7000903F000800000020000200006C010008D3
:103F80004841000800020020102B0000C801000872
:103F900011140801405A0C0471325F1A07021B14F5
:103FA0007F021010242E7B2A1223130864623649E4
:103FB00056205024040301241C22411441221C1ABF
:103FC0002222200A2208087F08084030102A08010F
:103FD00011236060100B20100804023E5149453E39
:103FE00014427F40102962514949462141494D33CD
:103FF0001814127F1027454545393C4A494931017B
:10400000710905033649494936464949291E23366F
:10401000362A40051B0814642A1401196928131450
:104020000802015905023E415D555E7C1211127C69
:104030007F321F3E414141227F052A3E0F180C412D
:104040007F090909013E415151728F13087F1441C4
:104050007F412F2040413F017F4C1B7F4001280BB7
:104060007F020C027F7F0408107F3C2A3E321A0632
:10407000321809215E7F091929462646180832019F
:10408000017F01013F2C18173F1F2040201F7F2078
:1040900018207F6314081463030478040361D21B9F
:1040A000437F74111A024612201B41414F2D027F9B
:1040B00002045E2240181301020424545438407F45
:1040C000284444383844444408052017287F38548D
:1040D000545408087E09090298A4A4A4787F08040F
:1040E00004783279148088791E7F10284440AF12FA
:1040F000401A786429022B04783C180838FC2424E0
:10410000241818052AFC141B084846180D24043FDF
:104110004444243C40403C401CA01B1C3C091C3C2B
:10412000442842400E9CA0A0907C4464544C440817
:10413000364142771D41360808AA1C08552A02114B
:08414000D30101126002000826
:0400000508000131BD
:00000001FF
